{
  "contractName": "LinkedListQueue",
  "abi": [
    {
      "constant": false,
      "inputs": [
        {
          "name": "queue",
          "type": "LinkedListQueue.Meta storage"
        }
      ],
      "name": "poll",
      "outputs": [
        {
          "name": "",
          "type": "bytes32"
        }
      ],
      "payable": false,
      "stateMutability": "nonpayable",
      "type": "function"
    },
    {
      "constant": false,
      "inputs": [
        {
          "name": "self",
          "type": "LinkedListQueue.Meta storage"
        },
        {
          "name": "element",
          "type": "bytes32"
        }
      ],
      "name": "remove",
      "outputs": [],
      "payable": false,
      "stateMutability": "nonpayable",
      "type": "function"
    },
    {
      "constant": false,
      "inputs": [
        {
          "name": "self",
          "type": "LinkedListQueue.Meta storage"
        },
        {
          "name": "element",
          "type": "bytes32"
        }
      ],
      "name": "insertAtHead",
      "outputs": [],
      "payable": false,
      "stateMutability": "nonpayable",
      "type": "function"
    },
    {
      "constant": true,
      "inputs": [
        {
          "name": "self",
          "type": "LinkedListQueue.Meta storage"
        }
      ],
      "name": "peek",
      "outputs": [
        {
          "name": "",
          "type": "bytes32"
        }
      ],
      "payable": false,
      "stateMutability": "view",
      "type": "function"
    },
    {
      "constant": true,
      "inputs": [
        {
          "name": "self",
          "type": "LinkedListQueue.Meta storage"
        }
      ],
      "name": "peekLast",
      "outputs": [
        {
          "name": "",
          "type": "bytes32"
        }
      ],
      "payable": false,
      "stateMutability": "view",
      "type": "function"
    },
    {
      "constant": true,
      "inputs": [
        {
          "name": "self",
          "type": "LinkedListQueue.Meta storage"
        },
        {
          "name": "element",
          "type": "bytes32"
        }
      ],
      "name": "peekAfter",
      "outputs": [
        {
          "name": "",
          "type": "bytes32"
        }
      ],
      "payable": false,
      "stateMutability": "view",
      "type": "function"
    },
    {
      "constant": true,
      "inputs": [
        {
          "name": "self",
          "type": "LinkedListQueue.Meta storage"
        }
      ],
      "name": "getCount",
      "outputs": [
        {
          "name": "",
          "type": "uint256"
        }
      ],
      "payable": false,
      "stateMutability": "view",
      "type": "function"
    },
    {
      "constant": false,
      "inputs": [
        {
          "name": "self",
          "type": "LinkedListQueue.Meta storage"
        }
      ],
      "name": "clear",
      "outputs": [],
      "payable": false,
      "stateMutability": "nonpayable",
      "type": "function"
    }
  ],
  "bytecode": "0x6105bf610030600b82828239805160001a6073146000811461002057610022565bfe5b5030600052607381538281f30073000000000000000000000000000000000000000030146080604052600436106100a5576000357c0100000000000000000000000000000000000000000000000000000000900463ffffffff168063384cffc2146100aa5780633de4c93a146100d757806341b99050146101125780635818ffad1461014d5780636ae7370a146101975780638c4b14a5146101cb578063c21bac4a14610207578063d1dc127514610243575b600080fd5b8180156100b657600080fd5b506100d56004803603810190808035906020019092919050505061028c565b005b8180156100e357600080fd5b506101106004803603810190808035906020019092919080356000191690602001909291905050506102b1565b005b81801561011e57600080fd5b5061014b6004803603810190808035906020019092919080356000191690602001909291905050506102ec565b005b610179600480360381019080803590602001909291908035600019169060200190929190505050610429565b60405180826000191660001916815260200191505060405180910390f35b6101b56004803603810190808035906020019092919050505061048e565b6040518082815260200191505060405180910390f35b6101e9600480360381019080803590602001909291905050506104e6565b60405180826000191660001916815260200191505060405180910390f35b610225600480360381019080803590602001909291905050506104f4565b60405180826000191660001916815260200191505060405180910390f35b81801561024f57600080fd5b5061026e60048036038101908080359060200190929190505050610502565b60405180826000191660001916815260200191505060405180910390f35b6000600102816001018160001916905550600060010281600201816000191690555050565b816001015482600001600083600019166000191681526020019081526020016000208160001916905550808260010181600019169055505050565b60008083600101549150836001015490505b600060010282600019161415801561031e57508260001916826000191614155b1561034b5781905083600001600083600019166000191681526020019081526020016000205491506102fe565b60006001028260001916141561036057610423565b836001015460001916826000191614156103a3578360000160008360001916600019168152602001908152602001600020548460010181600019169055506103e7565b836000016000836000191660001916815260200190815260200160002054846000016000836000191660001916815260200190815260200160002081600019169055505b600060010284600001600084600019166000191681526020019081526020016000205460001916141561042257808460020181600019169055505b5b50505050565b600080600102836001015460001916141561044a5760006001029050610488565b60006001028260001916141515610480578260000160008360001916600019168152602001908152602001600020549050610488565b826001015490505b92915050565b6000806000809150836001015490505b600060010281600019161415156104dc578360000160008260001916600019168152602001908152602001600020549050818060010192505061049e565b8192505050919050565b600081600201549050919050565b600081600101549050919050565b60008082600101549050826000016000846001015460001916600019168152602001908152602001600020548360010181600019169055506000600102836000016000836000191660001916815260200190815260200160002081600019169055506000600102836001015460001916141561058a5760006001028360020181600019169055505b809150509190505600a165627a7a7230582006b62a33680b7df25310a42f4d7225a8b1ad038bc85c6e746ca27f0980b9d32e0029",
  "source": "pragma solidity ^0.4.24;\n\n/**\n * Library that implements a linked-list queue (FIFO) of bytes32 elements. \n * Terminology taken from: https://docs.oracle.com/javase/8/docs/api/java/util/Queue.html#add-E-\n */\nlibrary LinkedListQueue {\n\n    struct Meta {\n        \n        mapping (bytes32 => bytes32) nodes;\n        bytes32 head;\n        bytes32 tail;\n\n    }   \n\n    /**\n     * Adding an element to the tail of the queue\n     */\n    function add(Meta storage queue, bytes32 entry) internal {\n\n        if (queue.head == 0x0) {\n            queue.head = entry;\n        }\n        else {\n            queue.nodes[queue.tail] = entry;\n        }\n        queue.tail = entry;\n\n    }\n\n    /**\n     * Return and remove an element from the head of the queue\n     */\n    function poll(Meta storage queue) public returns (bytes32) {\n        \n        bytes32 element = queue.head;\n        queue.head = queue.nodes[queue.head];\n        /**\n          * Clear the next pointer, to not leave state. Future additions might use the same element\n          */\n        queue.nodes[element] = 0x0; \n        /**\n         * Set tail in case head was set to 0x0\n         */\n        if (queue.head == 0x0) {\n            queue.tail = 0x0;\n        }\n        return element;\n        \n    }\n\n    function remove(Meta storage self, bytes32 element) public {\n        \n        bytes32 r = self.head;\n        bytes32 previous = self.head;\n        while (r != 0x0 && r != element) {\n            previous = r;\n            r = self.nodes[r];\n        }\n\n        if (r == 0x0) {\n            return;\n        }\n\n        if (r == self.head) {\n            self.head = self.nodes[r];\n        }\n        else {\n            self.nodes[previous] = self.nodes[r];\n        }\n\n        if (self.nodes[r] == 0x0) {\n            self.tail = previous;\n        }\n\n    }    \n\n    /**\n     * Inserts an element at the head\n     */\n    function insertAtHead(Meta storage self, bytes32 element) public {\n\n        self.nodes[element] = self.head;\n        self.head = element;\n\n    }\n\n    /**\n     * Gets the head of the list, without removing the element\n     */\n    function peek(Meta storage self) public view returns (bytes32) {\n        \n        return self.head;\n        \n    }\n\n    /**\n     * Gets the tail of the list, without removing the element\n     */\n    function peekLast(Meta storage self) public view returns (bytes32) {\n        \n        return self.tail;\n\n    }\n    \n\n    /**\n     * Gets the element after the passed element, without removing the element\n     */\n    function peekAfter(Meta storage self, bytes32 element) public view returns (bytes32) {\n\n        if (self.head == 0x0) {\n            return 0x0;\n        }\n        else if (element != 0x0) {\n            return self.nodes[element];\n        }\n        else {\n            return self.head;\n        }\n        \n    }\n\n    /**\n     * Due to gas-reasons, count management is not there, it's also not necessary. \n     * So getting the count is going to be expensive. Better to maintain it at the caller\n     */\n    function getCount(Meta storage self) public view returns (uint) {\n        \n        uint count = 0;\n        bytes32 r = self.head;\n        while (r != 0x0) {\n            r = self.nodes[r];\n            count++;\n        }\n\n        return count;\n        \n    }\n\n\n    /**\n     * Clear the head and the tail of the queue. Like erasing the queue\n     */\n    function clear(Meta storage self) public {\n\n        self.head = 0x0;\n        self.tail = 0x0;\n\n    }\n\n}    \n",
  "sourcePath": "/home/vagrant/DAPPS/ivo_willemsen-code/contracts/LinkedListQueue.sol",
  "compiler": {
    "name": "solc",
    "version": "0.4.24+commit.e67f0147.Emscripten.clang"
  },
  "schemaVersion": "2.0.1",
  "updatedAt": "2018-10-16T17:03:01.186Z"
}