{
  "contractName": "Owned",
  "abi": [
    {
      "inputs": [],
      "payable": false,
      "stateMutability": "nonpayable",
      "type": "constructor"
    },
    {
      "anonymous": false,
      "inputs": [
        {
          "indexed": true,
          "name": "previousOwner",
          "type": "address"
        },
        {
          "indexed": true,
          "name": "newOwner",
          "type": "address"
        }
      ],
      "name": "LogOwnerSet",
      "type": "event"
    },
    {
      "constant": false,
      "inputs": [
        {
          "name": "newOwner",
          "type": "address"
        }
      ],
      "name": "setOwner",
      "outputs": [
        {
          "name": "",
          "type": "bool"
        }
      ],
      "payable": false,
      "stateMutability": "nonpayable",
      "type": "function"
    },
    {
      "constant": true,
      "inputs": [],
      "name": "getOwner",
      "outputs": [
        {
          "name": "",
          "type": "address"
        }
      ],
      "payable": false,
      "stateMutability": "view",
      "type": "function"
    }
  ],
  "bytecode": "0x608060405234801561001057600080fd5b50336000806101000a81548173ffffffffffffffffffffffffffffffffffffffff021916908373ffffffffffffffffffffffffffffffffffffffff1602179055506102fb806100606000396000f30060806040526004361061004c576000357c0100000000000000000000000000000000000000000000000000000000900463ffffffff16806313af403514610051578063893d20e8146100ac575b600080fd5b34801561005d57600080fd5b50610092600480360381019080803573ffffffffffffffffffffffffffffffffffffffff169060200190929190505050610103565b604051808215151515815260200191505060405180910390f35b3480156100b857600080fd5b506100c16102a6565b604051808273ffffffffffffffffffffffffffffffffffffffff1673ffffffffffffffffffffffffffffffffffffffff16815260200191505060405180910390f35b60008060009054906101000a900473ffffffffffffffffffffffffffffffffffffffff1673ffffffffffffffffffffffffffffffffffffffff163373ffffffffffffffffffffffffffffffffffffffff1614151561016057600080fd5b6000809054906101000a900473ffffffffffffffffffffffffffffffffffffffff1673ffffffffffffffffffffffffffffffffffffffff168273ffffffffffffffffffffffffffffffffffffffff16141515156101bc57600080fd5b60008273ffffffffffffffffffffffffffffffffffffffff16141515156101e257600080fd5b8173ffffffffffffffffffffffffffffffffffffffff166000809054906101000a900473ffffffffffffffffffffffffffffffffffffffff1673ffffffffffffffffffffffffffffffffffffffff167fa1d2149652d81eb35c360c115fc7ac594124cb1ea8a5a33e9a7f5768c62869fb60405160405180910390a3816000806101000a81548173ffffffffffffffffffffffffffffffffffffffff021916908373ffffffffffffffffffffffffffffffffffffffff16021790555060019050919050565b60008060009054906101000a900473ffffffffffffffffffffffffffffffffffffffff169050905600a165627a7a7230582034e1e37a36f0480f3dfba7006bbb42d4cb76949f54c510131a084e3b148401e50029",
  "source": "pragma solidity ^0.4.24;\n\nimport \"./interfaces/OwnedI.sol\";\n\ncontract Owned is OwnedI {\n    address owner;\n\n    /**\n     * If the sender is not equal to the owner, then revert the transaction\n     */\n    modifier onlyWhenOwner() {\n\n        require(msg.sender == owner);\n        _;\n\n    }\n\n    constructor() public {\n\n        owner = msg.sender;\n\n    }\n\n    /**\n     * Event emitted when a new owner has been set.\n     * @param previousOwner The previous owner, who happened to effect the change.\n     * @param newOwner The new, and current, owner the contract.\n     */\n    event LogOwnerSet(address indexed previousOwner, address indexed newOwner);\n\n    /**\n     * Sets the new owner for this contract.\n     *     It should roll back if the caller is not the current owner.\n     *     It should roll back if the argument is the current owner.\n     *     It should roll back if the argument is a 0 address.\n     * @param newOwner The new owner of the contract\n     * @return Whether the action was successful.\n     * Emits LogOwnerSet with:\n     *     The sender of the action.\n     *     The new owner.\n     */\n    function setOwner(address newOwner) onlyWhenOwner() public returns (bool) {\n\n        require(newOwner != owner);\n        require(newOwner != 0);\n\n        emit LogOwnerSet(owner, newOwner);\n\n        owner = newOwner;\n\n        return true;\n\n    }\n\n    /**\n     * @return The owner of this contract.\n     */\n    function getOwner() view public returns (address) {\n\n        return owner;\n\n    }\n    \n}\n",
  "sourcePath": "/home/vagrant/DAPPS/ivo_willemsen-code/contracts/Owned.sol",
  "compiler": {
    "name": "solc",
    "version": "0.4.24+commit.e67f0147.Emscripten.clang"
  },
  "schemaVersion": "2.0.1",
  "updatedAt": "2018-10-16T17:02:42.507Z"
}