{
  "contractName": "Pausable",
  "abi": [
    {
      "constant": false,
      "inputs": [
        {
          "name": "newOwner",
          "type": "address"
        }
      ],
      "name": "setOwner",
      "outputs": [
        {
          "name": "",
          "type": "bool"
        }
      ],
      "payable": false,
      "stateMutability": "nonpayable",
      "type": "function"
    },
    {
      "constant": true,
      "inputs": [],
      "name": "getOwner",
      "outputs": [
        {
          "name": "",
          "type": "address"
        }
      ],
      "payable": false,
      "stateMutability": "view",
      "type": "function"
    },
    {
      "inputs": [
        {
          "name": "_paused",
          "type": "bool"
        }
      ],
      "payable": false,
      "stateMutability": "nonpayable",
      "type": "constructor"
    },
    {
      "anonymous": false,
      "inputs": [
        {
          "indexed": true,
          "name": "sender",
          "type": "address"
        },
        {
          "indexed": true,
          "name": "newPausedState",
          "type": "bool"
        }
      ],
      "name": "LogPausedSet",
      "type": "event"
    },
    {
      "anonymous": false,
      "inputs": [
        {
          "indexed": true,
          "name": "previousOwner",
          "type": "address"
        },
        {
          "indexed": true,
          "name": "newOwner",
          "type": "address"
        }
      ],
      "name": "LogOwnerSet",
      "type": "event"
    },
    {
      "constant": false,
      "inputs": [
        {
          "name": "newState",
          "type": "bool"
        }
      ],
      "name": "setPaused",
      "outputs": [
        {
          "name": "",
          "type": "bool"
        }
      ],
      "payable": false,
      "stateMutability": "nonpayable",
      "type": "function"
    },
    {
      "constant": true,
      "inputs": [],
      "name": "isPaused",
      "outputs": [
        {
          "name": "",
          "type": "bool"
        }
      ],
      "payable": false,
      "stateMutability": "view",
      "type": "function"
    }
  ],
  "bytecode": "0x608060405234801561001057600080fd5b5060405160208061052283398101806040528101908080519060200190929190505050336000806101000a81548173ffffffffffffffffffffffffffffffffffffffff021916908373ffffffffffffffffffffffffffffffffffffffff16021790555080600060146101000a81548160ff021916908315150217905550506104858061009d6000396000f300608060405260043610610062576000357c0100000000000000000000000000000000000000000000000000000000900463ffffffff16806313af40351461006757806316c38b3c146100c2578063893d20e814610109578063b187bd2614610160575b600080fd5b34801561007357600080fd5b506100a8600480360381019080803573ffffffffffffffffffffffffffffffffffffffff16906020019092919050505061018f565b604051808215151515815260200191505060405180910390f35b3480156100ce57600080fd5b506100ef600480360381019080803515159060200190929190505050610332565b604051808215151515815260200191505060405180910390f35b34801561011557600080fd5b5061011e61041a565b604051808273ffffffffffffffffffffffffffffffffffffffff1673ffffffffffffffffffffffffffffffffffffffff16815260200191505060405180910390f35b34801561016c57600080fd5b50610175610443565b604051808215151515815260200191505060405180910390f35b60008060009054906101000a900473ffffffffffffffffffffffffffffffffffffffff1673ffffffffffffffffffffffffffffffffffffffff163373ffffffffffffffffffffffffffffffffffffffff161415156101ec57600080fd5b6000809054906101000a900473ffffffffffffffffffffffffffffffffffffffff1673ffffffffffffffffffffffffffffffffffffffff168273ffffffffffffffffffffffffffffffffffffffff161415151561024857600080fd5b60008273ffffffffffffffffffffffffffffffffffffffff161415151561026e57600080fd5b8173ffffffffffffffffffffffffffffffffffffffff166000809054906101000a900473ffffffffffffffffffffffffffffffffffffffff1673ffffffffffffffffffffffffffffffffffffffff167fa1d2149652d81eb35c360c115fc7ac594124cb1ea8a5a33e9a7f5768c62869fb60405160405180910390a3816000806101000a81548173ffffffffffffffffffffffffffffffffffffffff021916908373ffffffffffffffffffffffffffffffffffffffff16021790555060019050919050565b60008060009054906101000a900473ffffffffffffffffffffffffffffffffffffffff1673ffffffffffffffffffffffffffffffffffffffff163373ffffffffffffffffffffffffffffffffffffffff1614151561038f57600080fd5b600060149054906101000a900460ff161515821515141515156103b157600080fd5b81600060146101000a81548160ff0219169083151502179055508115153373ffffffffffffffffffffffffffffffffffffffff167fae0f86d9801b0bd39a2ce25d9fd1f202f2fd22e80150be4a99adb0275a635d6c60405160405180910390a360019050919050565b60008060009054906101000a900473ffffffffffffffffffffffffffffffffffffffff16905090565b60008060149054906101000a900460ff169050905600a165627a7a72305820ac19e2b70eebe0b5f70eeff95410414d6f6034a55e0318e83df910229abbfb370029",
  "source": "pragma solidity ^0.4.24;\n\nimport \"./interfaces/PausableI.sol\";\nimport \"./Owned.sol\";\n\ncontract Pausable is PausableI, Owned {\n\n    bool paused;\n\n    modifier whenPaused() {\n\n        require(paused);\n        _;\n\n    }\n\n    modifier whenNotPaused() {\n\n        require(!paused);\n        _;\n\n    }\n\n    constructor(bool _paused) public {\n\n        paused = _paused;\n\n    }\n\n    /**\n     * Event emitted when a new paused state has been set.\n     * @param sender The account that ran the action.\n     * @param newPausedState The new, and current, paused state of the contract.\n     */\n    event LogPausedSet(address indexed sender, bool indexed newPausedState);\n\n\t/**\n     * Sets the new paused state for this contract.\n     *     It should roll back if the caller is not the current owner of this contract.\n     *     It should roll back if the state passed is no different from the current.\n     * @param newState The new desired \"paused\" state of the contract.\n     * @return Whether the action was successful.\n     * Emits LogPausedSet with:\n     *     The sender of the action.\n     *     The new state.\n     */\n    function setPaused(bool newState) onlyWhenOwner public returns (bool) {\n\n        require(newState != paused);\n\n        paused = newState;\n        emit LogPausedSet(msg.sender, newState);\n\n        return true;\n\n    }\n\n\t/**\n\t * @return Whether the contract is indeed paused.\n\t */\n    function isPaused() view public returns (bool) {\n\n        return paused;\n\n    }\n\n}\n",
  "sourcePath": "/home/vagrant/DAPPS/ivo_willemsen-code/contracts/Pausable.sol",
  "compiler": {
    "name": "solc",
    "version": "0.4.24+commit.e67f0147.Emscripten.clang"
  },
  "schemaVersion": "2.0.1",
  "updatedAt": "2018-10-16T17:02:42.509Z"
}