{
  "contractName": "Regulated",
  "abi": [
    {
      "inputs": [
        {
          "name": "_regulator",
          "type": "address"
        }
      ],
      "payable": false,
      "stateMutability": "nonpayable",
      "type": "constructor"
    },
    {
      "anonymous": false,
      "inputs": [
        {
          "indexed": true,
          "name": "previousRegulator",
          "type": "address"
        },
        {
          "indexed": true,
          "name": "newRegulator",
          "type": "address"
        }
      ],
      "name": "LogRegulatorSet",
      "type": "event"
    },
    {
      "constant": false,
      "inputs": [
        {
          "name": "newRegulator",
          "type": "address"
        }
      ],
      "name": "setRegulator",
      "outputs": [
        {
          "name": "",
          "type": "bool"
        }
      ],
      "payable": false,
      "stateMutability": "nonpayable",
      "type": "function"
    },
    {
      "constant": true,
      "inputs": [],
      "name": "getRegulator",
      "outputs": [
        {
          "name": "",
          "type": "address"
        }
      ],
      "payable": false,
      "stateMutability": "view",
      "type": "function"
    }
  ],
  "bytecode": "0x608060405234801561001057600080fd5b506040516020806105308339810180604052810190808051906020019092919050505060008173ffffffffffffffffffffffffffffffffffffffff161415151561005957600080fd5b806000806101000a81548173ffffffffffffffffffffffffffffffffffffffff021916908373ffffffffffffffffffffffffffffffffffffffff16021790555050610487806100a96000396000f30060806040526004361061004c576000357c0100000000000000000000000000000000000000000000000000000000900463ffffffff168063cde0a4f814610051578063f7e317f4146100ac575b600080fd5b34801561005d57600080fd5b50610092600480360381019080803573ffffffffffffffffffffffffffffffffffffffff169060200190929190505050610103565b604051808215151515815260200191505060405180910390f35b3480156100b857600080fd5b506100c1610432565b604051808273ffffffffffffffffffffffffffffffffffffffff1673ffffffffffffffffffffffffffffffffffffffff16815260200191505060405180910390f35b60003373ffffffffffffffffffffffffffffffffffffffff166000809054906101000a900473ffffffffffffffffffffffffffffffffffffffff1673ffffffffffffffffffffffffffffffffffffffff161415156101ef576040517f08c379a000000000000000000000000000000000000000000000000000000000815260040180806020018281038252602b8152602001807f43616e206f6e6c792062652063616c6c6564206279207468652063757272656e81526020017f7420726567756c61746f7200000000000000000000000000000000000000000081525060400191505060405180910390fd5b60008273ffffffffffffffffffffffffffffffffffffffff16141515156102a4576040517f08c379a00000000000000000000000000000000000000000000000000000000081526004018080602001828103825260218152602001807f4e657720726567756c61746f722063616e6e6f7420626520302061646472657381526020017f730000000000000000000000000000000000000000000000000000000000000081525060400191505060405180910390fd5b6000809054906101000a900473ffffffffffffffffffffffffffffffffffffffff1673ffffffffffffffffffffffffffffffffffffffff168273ffffffffffffffffffffffffffffffffffffffff161415151561038f576040517f08c379a000000000000000000000000000000000000000000000000000000000815260040180806020018281038252602c8152602001807f4e657720616e642063757272656e7420726567756c61746f722063616e6e6f7481526020017f206265207468652073616d65000000000000000000000000000000000000000081525060400191505060405180910390fd5b816000806101000a81548173ffffffffffffffffffffffffffffffffffffffff021916908373ffffffffffffffffffffffffffffffffffffffff1602179055508173ffffffffffffffffffffffffffffffffffffffff163373ffffffffffffffffffffffffffffffffffffffff167fa32c4b1f26f0d877f643f7fb9db131f9cebf04d120fe5ada74c0bdfc808dab8360405160405180910390a360019050919050565b60008060009054906101000a900473ffffffffffffffffffffffffffffffffffffffff169050905600a165627a7a72305820c72eeeeae731ec37b0d92e6923f537d22ab01e29dd218c1ad1404af1c08493460029",
  "source": "pragma solidity ^0.4.24;\n\nimport \"./interfaces/RegulatedI.sol\";\n\ncontract Regulated is RegulatedI {\n\n    RegulatorI regulator;\n\n    constructor (address _regulator) public {\n        require(_regulator != 0x0);\n        regulator = RegulatorI(_regulator);\n    }\n\n    /**\n     * Event emitted when a new regulator has been set.\n     * @param previousRegulator The previous regulator of the contract.\n     * @param newRegulator The new, and current, regulator of the contract.\n     */\n    event LogRegulatorSet(address indexed previousRegulator, address indexed newRegulator);\n\n    /**\n     * Sets the new regulator for this contract.\n     *     It should roll back if any address other than the current regulator of this contract\n     *       calls this function.\n     *     It should roll back if the new regulator address is 0.\n     *     It should roll back if the new regulator is the same as the current regulator.\n     * @param newRegulator The new desired regulator of the contract. It is assumed, that this is the\n     *     address of a `RegulatorI` contract. It is not necessary to prove it is a `RegulatorI`.\n     * @return Whether the action was successful.\n     * Emits LogRegulatorSet with:\n     *     The sender of the action.\n     *     The new regulator.\n     */\n    function setRegulator(address newRegulator) public returns (bool) {\n\n        require(regulator == msg.sender, \"Can only be called by the current regulator\");\n        require(newRegulator != 0x0, \"New regulator cannot be 0 address\");\n        require(newRegulator != address(regulator), \"New and current regulator cannot be the same\");\n\n        regulator = RegulatorI(newRegulator);\n\n        emit LogRegulatorSet(msg.sender, newRegulator);\n\n        return true;\n\n    }\n\n    /**\n     * @return The current regulator.\n     */\n    function getRegulator() view public returns (RegulatorI) {\n\n        return regulator;\n\n    }\n\n}\n ",
  "sourcePath": "/home/vagrant/DAPPS/ivo_willemsen-code/contracts/Regulated.sol",
  "compiler": {
    "name": "solc",
    "version": "0.4.24+commit.e67f0147.Emscripten.clang"
  },
  "schemaVersion": "2.0.1",
  "updatedAt": "2018-10-16T17:02:42.531Z"
}