{
  "contractName": "TollBoothOperator",
  "abi": [
    {
      "constant": false,
      "inputs": [
        {
          "name": "tollBooth",
          "type": "address"
        }
      ],
      "name": "removeTollBooth",
      "outputs": [
        {
          "name": "success",
          "type": "bool"
        }
      ],
      "payable": false,
      "stateMutability": "nonpayable",
      "type": "function"
    },
    {
      "constant": false,
      "inputs": [
        {
          "name": "newOwner",
          "type": "address"
        }
      ],
      "name": "setOwner",
      "outputs": [
        {
          "name": "",
          "type": "bool"
        }
      ],
      "payable": false,
      "stateMutability": "nonpayable",
      "type": "function"
    },
    {
      "constant": false,
      "inputs": [
        {
          "name": "newState",
          "type": "bool"
        }
      ],
      "name": "setPaused",
      "outputs": [
        {
          "name": "",
          "type": "bool"
        }
      ],
      "payable": false,
      "stateMutability": "nonpayable",
      "type": "function"
    },
    {
      "constant": false,
      "inputs": [
        {
          "name": "tollBooth",
          "type": "address"
        }
      ],
      "name": "addTollBooth",
      "outputs": [
        {
          "name": "",
          "type": "bool"
        }
      ],
      "payable": false,
      "stateMutability": "nonpayable",
      "type": "function"
    },
    {
      "constant": false,
      "inputs": [
        {
          "name": "vehicleType",
          "type": "uint256"
        },
        {
          "name": "multiplier",
          "type": "uint256"
        }
      ],
      "name": "setMultiplier",
      "outputs": [
        {
          "name": "",
          "type": "bool"
        }
      ],
      "payable": false,
      "stateMutability": "nonpayable",
      "type": "function"
    },
    {
      "constant": true,
      "inputs": [
        {
          "name": "entryBooth",
          "type": "address"
        },
        {
          "name": "exitBooth",
          "type": "address"
        }
      ],
      "name": "getRoutePrice",
      "outputs": [
        {
          "name": "",
          "type": "uint256"
        }
      ],
      "payable": false,
      "stateMutability": "view",
      "type": "function"
    },
    {
      "constant": true,
      "inputs": [
        {
          "name": "tollBooth",
          "type": "address"
        }
      ],
      "name": "isTollBooth",
      "outputs": [
        {
          "name": "",
          "type": "bool"
        }
      ],
      "payable": false,
      "stateMutability": "view",
      "type": "function"
    },
    {
      "constant": true,
      "inputs": [],
      "name": "getOwner",
      "outputs": [
        {
          "name": "",
          "type": "address"
        }
      ],
      "payable": false,
      "stateMutability": "view",
      "type": "function"
    },
    {
      "constant": true,
      "inputs": [
        {
          "name": "vehicleType",
          "type": "uint256"
        }
      ],
      "name": "getMultiplier",
      "outputs": [
        {
          "name": "",
          "type": "uint256"
        }
      ],
      "payable": false,
      "stateMutability": "view",
      "type": "function"
    },
    {
      "constant": true,
      "inputs": [],
      "name": "isPaused",
      "outputs": [
        {
          "name": "",
          "type": "bool"
        }
      ],
      "payable": false,
      "stateMutability": "view",
      "type": "function"
    },
    {
      "constant": true,
      "inputs": [],
      "name": "getDeposit",
      "outputs": [
        {
          "name": "",
          "type": "uint256"
        }
      ],
      "payable": false,
      "stateMutability": "view",
      "type": "function"
    },
    {
      "constant": false,
      "inputs": [
        {
          "name": "newRegulator",
          "type": "address"
        }
      ],
      "name": "setRegulator",
      "outputs": [
        {
          "name": "",
          "type": "bool"
        }
      ],
      "payable": false,
      "stateMutability": "nonpayable",
      "type": "function"
    },
    {
      "constant": false,
      "inputs": [
        {
          "name": "depositWeis",
          "type": "uint256"
        }
      ],
      "name": "setDeposit",
      "outputs": [
        {
          "name": "",
          "type": "bool"
        }
      ],
      "payable": false,
      "stateMutability": "nonpayable",
      "type": "function"
    },
    {
      "constant": true,
      "inputs": [],
      "name": "getRegulator",
      "outputs": [
        {
          "name": "",
          "type": "address"
        }
      ],
      "payable": false,
      "stateMutability": "view",
      "type": "function"
    },
    {
      "inputs": [
        {
          "name": "paused",
          "type": "bool"
        },
        {
          "name": "baseDeposit",
          "type": "uint256"
        },
        {
          "name": "regulator",
          "type": "address"
        }
      ],
      "payable": false,
      "stateMutability": "nonpayable",
      "type": "constructor"
    },
    {
      "payable": false,
      "stateMutability": "nonpayable",
      "type": "fallback"
    },
    {
      "anonymous": false,
      "inputs": [
        {
          "indexed": true,
          "name": "vehicle",
          "type": "address"
        },
        {
          "indexed": true,
          "name": "entryBooth",
          "type": "address"
        },
        {
          "indexed": true,
          "name": "exitSecretHashed",
          "type": "bytes32"
        },
        {
          "indexed": false,
          "name": "depositedWeis",
          "type": "uint256"
        }
      ],
      "name": "LogRoadEntered",
      "type": "event"
    },
    {
      "anonymous": false,
      "inputs": [
        {
          "indexed": true,
          "name": "exitBooth",
          "type": "address"
        },
        {
          "indexed": true,
          "name": "exitSecretHashed",
          "type": "bytes32"
        },
        {
          "indexed": false,
          "name": "finalFee",
          "type": "uint256"
        },
        {
          "indexed": false,
          "name": "refundWeis",
          "type": "uint256"
        }
      ],
      "name": "LogRoadExited",
      "type": "event"
    },
    {
      "anonymous": false,
      "inputs": [
        {
          "indexed": true,
          "name": "exitSecretHashed",
          "type": "bytes32"
        },
        {
          "indexed": true,
          "name": "entryBooth",
          "type": "address"
        },
        {
          "indexed": true,
          "name": "exitBooth",
          "type": "address"
        }
      ],
      "name": "LogPendingPayment",
      "type": "event"
    },
    {
      "anonymous": false,
      "inputs": [
        {
          "indexed": true,
          "name": "owner",
          "type": "address"
        },
        {
          "indexed": false,
          "name": "amount",
          "type": "uint256"
        }
      ],
      "name": "LogFeesCollected",
      "type": "event"
    },
    {
      "anonymous": false,
      "inputs": [
        {
          "indexed": true,
          "name": "previousRegulator",
          "type": "address"
        },
        {
          "indexed": true,
          "name": "newRegulator",
          "type": "address"
        }
      ],
      "name": "LogRegulatorSet",
      "type": "event"
    },
    {
      "anonymous": false,
      "inputs": [
        {
          "indexed": true,
          "name": "sender",
          "type": "address"
        },
        {
          "indexed": true,
          "name": "entryBooth",
          "type": "address"
        },
        {
          "indexed": true,
          "name": "exitBooth",
          "type": "address"
        },
        {
          "indexed": false,
          "name": "priceWeis",
          "type": "uint256"
        }
      ],
      "name": "LogRoutePriceSet",
      "type": "event"
    },
    {
      "anonymous": false,
      "inputs": [
        {
          "indexed": true,
          "name": "sender",
          "type": "address"
        },
        {
          "indexed": true,
          "name": "vehicleType",
          "type": "uint256"
        },
        {
          "indexed": false,
          "name": "multiplier",
          "type": "uint256"
        }
      ],
      "name": "LogMultiplierSet",
      "type": "event"
    },
    {
      "anonymous": false,
      "inputs": [
        {
          "indexed": true,
          "name": "sender",
          "type": "address"
        },
        {
          "indexed": true,
          "name": "tollBooth",
          "type": "address"
        }
      ],
      "name": "LogTollBoothAdded",
      "type": "event"
    },
    {
      "anonymous": false,
      "inputs": [
        {
          "indexed": true,
          "name": "sender",
          "type": "address"
        },
        {
          "indexed": true,
          "name": "tollBooth",
          "type": "address"
        }
      ],
      "name": "LogTollBoothRemoved",
      "type": "event"
    },
    {
      "anonymous": false,
      "inputs": [
        {
          "indexed": true,
          "name": "sender",
          "type": "address"
        },
        {
          "indexed": false,
          "name": "depositWeis",
          "type": "uint256"
        }
      ],
      "name": "LogDepositSet",
      "type": "event"
    },
    {
      "anonymous": false,
      "inputs": [
        {
          "indexed": true,
          "name": "sender",
          "type": "address"
        },
        {
          "indexed": true,
          "name": "newPausedState",
          "type": "bool"
        }
      ],
      "name": "LogPausedSet",
      "type": "event"
    },
    {
      "anonymous": false,
      "inputs": [
        {
          "indexed": true,
          "name": "previousOwner",
          "type": "address"
        },
        {
          "indexed": true,
          "name": "newOwner",
          "type": "address"
        }
      ],
      "name": "LogOwnerSet",
      "type": "event"
    },
    {
      "constant": true,
      "inputs": [
        {
          "name": "entryBooth",
          "type": "address"
        },
        {
          "name": "exitBooth",
          "type": "address"
        }
      ],
      "name": "getPendingPaymentCount",
      "outputs": [
        {
          "name": "",
          "type": "uint256"
        }
      ],
      "payable": false,
      "stateMutability": "view",
      "type": "function"
    },
    {
      "constant": false,
      "inputs": [
        {
          "name": "entryBooth",
          "type": "address"
        },
        {
          "name": "exitSecretHashed",
          "type": "bytes32"
        }
      ],
      "name": "enterRoad",
      "outputs": [
        {
          "name": "",
          "type": "bool"
        }
      ],
      "payable": true,
      "stateMutability": "payable",
      "type": "function"
    },
    {
      "constant": false,
      "inputs": [
        {
          "name": "exitSecretClear",
          "type": "bytes32"
        }
      ],
      "name": "reportExitRoad",
      "outputs": [
        {
          "name": "",
          "type": "uint256"
        }
      ],
      "payable": false,
      "stateMutability": "nonpayable",
      "type": "function"
    },
    {
      "constant": false,
      "inputs": [
        {
          "name": "entryBooth",
          "type": "address"
        },
        {
          "name": "exitBooth",
          "type": "address"
        },
        {
          "name": "count",
          "type": "uint256"
        }
      ],
      "name": "clearSomePendingPayments",
      "outputs": [
        {
          "name": "",
          "type": "bool"
        }
      ],
      "payable": false,
      "stateMutability": "nonpayable",
      "type": "function"
    },
    {
      "constant": false,
      "inputs": [
        {
          "name": "entryBooth",
          "type": "address"
        },
        {
          "name": "exitBooth",
          "type": "address"
        },
        {
          "name": "priceWeis",
          "type": "uint256"
        }
      ],
      "name": "setRoutePrice",
      "outputs": [
        {
          "name": "",
          "type": "bool"
        }
      ],
      "payable": false,
      "stateMutability": "nonpayable",
      "type": "function"
    },
    {
      "constant": true,
      "inputs": [],
      "name": "getCollectedFeesAmount",
      "outputs": [
        {
          "name": "",
          "type": "uint256"
        }
      ],
      "payable": false,
      "stateMutability": "view",
      "type": "function"
    },
    {
      "constant": false,
      "inputs": [],
      "name": "withdrawCollectedFees",
      "outputs": [
        {
          "name": "",
          "type": "bool"
        }
      ],
      "payable": false,
      "stateMutability": "nonpayable",
      "type": "function"
    },
    {
      "constant": true,
      "inputs": [
        {
          "name": "secret",
          "type": "bytes32"
        }
      ],
      "name": "hashSecret",
      "outputs": [
        {
          "name": "",
          "type": "bytes32"
        }
      ],
      "payable": false,
      "stateMutability": "view",
      "type": "function"
    },
    {
      "constant": true,
      "inputs": [
        {
          "name": "exitSecretHashed",
          "type": "bytes32"
        }
      ],
      "name": "getVehicleEntry",
      "outputs": [
        {
          "name": "",
          "type": "address"
        },
        {
          "name": "",
          "type": "address"
        },
        {
          "name": "",
          "type": "uint256"
        }
      ],
      "payable": false,
      "stateMutability": "view",
      "type": "function"
    }
  ],
  "bytecode": "0x60806040523480156200001157600080fd5b5060405160608062003b77833981018060405281019080805190602001909291908051906020019092919080519060200190929190505050808284336000806101000a81548173ffffffffffffffffffffffffffffffffffffffff021916908373ffffffffffffffffffffffffffffffffffffffff16021790555080600060146101000a81548160ff02191690831515021790555050600081111515620000b757600080fd5b806001819055505060008173ffffffffffffffffffffffffffffffffffffffff1614151515620000e657600080fd5b80600560006101000a81548173ffffffffffffffffffffffffffffffffffffffff021916908373ffffffffffffffffffffffffffffffffffffffff16021790555050600082111515620001c7576040517f08c379a00000000000000000000000000000000000000000000000000000000081526004018080602001828103825260238152602001807f42617365206465706f736974206d75737420626520677265617465722074686181526020017f6e2030000000000000000000000000000000000000000000000000000000000081525060400191505060405180910390fd5b60008173ffffffffffffffffffffffffffffffffffffffff161415151562000257576040517f08c379a000000000000000000000000000000000000000000000000000000000815260040180806020018281038252601f8152602001807f526567756c61746f7220616464726573732063616e6e6f74206265203078300081525060200191505060405180910390fd5b50505061390d806200026a6000396000f300608060405260043610610133576000357c0100000000000000000000000000000000000000000000000000000000900463ffffffff1680630bbbcbb2146101ae57806313af40351461020957806316c38b3c14610264578063226dfb42146102ab5780632c333eab14610330578063333271d01461038b57806339a87486146103da57806350295c671461041f57806350bb553a14610496578063552c1e55146104f15780637527b1ca1461053e578063893d20e8146105e9578063954d4add1461064057806399763af61461069c578063adf8252d146106c7578063b187bd2614610708578063c399ec8814610737578063cb3c4cbc14610762578063cde0a4f8146107d9578063dd47050f14610834578063e23d7c5b14610863578063f5bade66146108e8578063f7e317f41461092d575b34801561013f57600080fd5b506040517f08c379a000000000000000000000000000000000000000000000000000000000815260040180806020018281038252601e8152602001807f46616c6c6261636b2066756e6374696f6e206e6f742063616c6c61626c65000081525060200191505060405180910390fd5b3480156101ba57600080fd5b506101ef600480360381019080803573ffffffffffffffffffffffffffffffffffffffff169060200190929190505050610984565b604051808215151515815260200191505060405180910390f35b34801561021557600080fd5b5061024a600480360381019080803573ffffffffffffffffffffffffffffffffffffffff169060200190929190505050610b18565b604051808215151515815260200191505060405180910390f35b34801561027057600080fd5b50610291600480360381019080803515159060200190929190505050610cbb565b604051808215151515815260200191505060405180910390f35b3480156102b757600080fd5b50610316600480360381019080803573ffffffffffffffffffffffffffffffffffffffff169060200190929190803573ffffffffffffffffffffffffffffffffffffffff16906020019092919080359060200190929190505050610da3565b604051808215151515815260200191505060405180910390f35b34801561033c57600080fd5b50610371600480360381019080803573ffffffffffffffffffffffffffffffffffffffff1690602001909291905050506113e6565b604051808215151515815260200191505060405180910390f35b34801561039757600080fd5b506103c06004803603810190808035906020019092919080359060200190929190505050611655565b604051808215151515815260200191505060405180910390f35b3480156103e657600080fd5b506104096004803603810190808035600019169060200190929190505050611872565b6040518082815260200191505060405180910390f35b34801561042b57600080fd5b50610480600480360381019080803573ffffffffffffffffffffffffffffffffffffffff169060200190929190803573ffffffffffffffffffffffffffffffffffffffff169060200190929190505050611fab565b6040518082815260200191505060405180910390f35b3480156104a257600080fd5b506104d7600480360381019080803573ffffffffffffffffffffffffffffffffffffffff169060200190929190505050612032565b604051808215151515815260200191505060405180910390f35b3480156104fd57600080fd5b506105206004803603810190808035600019169060200190929190505050612088565b60405180826000191660001916815260200191505060405180910390f35b34801561054a57600080fd5b5061056d60048036038101908080356000191690602001909291905050506120af565b604051808473ffffffffffffffffffffffffffffffffffffffff1673ffffffffffffffffffffffffffffffffffffffff1681526020018373ffffffffffffffffffffffffffffffffffffffff1673ffffffffffffffffffffffffffffffffffffffff168152602001828152602001935050505060405180910390f35b3480156105f557600080fd5b506105fe61215e565b604051808273ffffffffffffffffffffffffffffffffffffffff1673ffffffffffffffffffffffffffffffffffffffff16815260200191505060405180910390f35b610682600480360381019080803573ffffffffffffffffffffffffffffffffffffffff1690602001909291908035600019169060200190929190505050612187565b604051808215151515815260200191505060405180910390f35b3480156106a857600080fd5b506106b161273f565b6040518082815260200191505060405180910390f35b3480156106d357600080fd5b506106f260048036038101908080359060200190929190505050612749565b6040518082815260200191505060405180910390f35b34801561071457600080fd5b5061071d612766565b604051808215151515815260200191505060405180910390f35b34801561074357600080fd5b5061074c61277c565b6040518082815260200191505060405180910390f35b34801561076e57600080fd5b506107c3600480360381019080803573ffffffffffffffffffffffffffffffffffffffff169060200190929190803573ffffffffffffffffffffffffffffffffffffffff169060200190929190505050612786565b6040518082815260200191505060405180910390f35b3480156107e557600080fd5b5061081a600480360381019080803573ffffffffffffffffffffffffffffffffffffffff16906020019092919050505061280d565b604051808215151515815260200191505060405180910390f35b34801561084057600080fd5b50610849612b3f565b604051808215151515815260200191505060405180910390f35b34801561086f57600080fd5b506108ce600480360381019080803573ffffffffffffffffffffffffffffffffffffffff169060200190929190803573ffffffffffffffffffffffffffffffffffffffff16906020019092919080359060200190929190505050612ce2565b604051808215151515815260200191505060405180910390f35b3480156108f457600080fd5b5061091360048036038101908080359060200190929190505050612df3565b604051808215151515815260200191505060405180910390f35b34801561093957600080fd5b50610942612ed0565b604051808273ffffffffffffffffffffffffffffffffffffffff1673ffffffffffffffffffffffffffffffffffffffff16815260200191505060405180910390f35b60008060009054906101000a900473ffffffffffffffffffffffffffffffffffffffff1673ffffffffffffffffffffffffffffffffffffffff163373ffffffffffffffffffffffffffffffffffffffff161415156109e157600080fd5b60011515600260008473ffffffffffffffffffffffffffffffffffffffff1673ffffffffffffffffffffffffffffffffffffffff16815260200190815260200160002060009054906101000a900460ff161515141515610a4057600080fd5b60008273ffffffffffffffffffffffffffffffffffffffff1614151515610a6657600080fd5b600260008373ffffffffffffffffffffffffffffffffffffffff1673ffffffffffffffffffffffffffffffffffffffff16815260200190815260200160002060006101000a81549060ff02191690558173ffffffffffffffffffffffffffffffffffffffff163373ffffffffffffffffffffffffffffffffffffffff167f5b34220b1e6888774f5c1badf295633d5d8d4ae02d5e3019e422b3debfe8967860405160405180910390a360019050919050565b60008060009054906101000a900473ffffffffffffffffffffffffffffffffffffffff1673ffffffffffffffffffffffffffffffffffffffff163373ffffffffffffffffffffffffffffffffffffffff16141515610b7557600080fd5b6000809054906101000a900473ffffffffffffffffffffffffffffffffffffffff1673ffffffffffffffffffffffffffffffffffffffff168273ffffffffffffffffffffffffffffffffffffffff1614151515610bd157600080fd5b60008273ffffffffffffffffffffffffffffffffffffffff1614151515610bf757600080fd5b8173ffffffffffffffffffffffffffffffffffffffff166000809054906101000a900473ffffffffffffffffffffffffffffffffffffffff1673ffffffffffffffffffffffffffffffffffffffff167fa1d2149652d81eb35c360c115fc7ac594124cb1ea8a5a33e9a7f5768c62869fb60405160405180910390a3816000806101000a81548173ffffffffffffffffffffffffffffffffffffffff021916908373ffffffffffffffffffffffffffffffffffffffff16021790555060019050919050565b60008060009054906101000a900473ffffffffffffffffffffffffffffffffffffffff1673ffffffffffffffffffffffffffffffffffffffff163373ffffffffffffffffffffffffffffffffffffffff16141515610d1857600080fd5b600060149054906101000a900460ff16151582151514151515610d3a57600080fd5b81600060146101000a81548160ff0219169083151502179055508115153373ffffffffffffffffffffffffffffffffffffffff167fae0f86d9801b0bd39a2ce25d9fd1f202f2fd22e80150be4a99adb0275a635d6c60405160405180910390a360019050919050565b60008060008060149054906101000a900460ff16151515610dc357600080fd5b610dcc86612032565b1515610e66576040517f08c379a00000000000000000000000000000000000000000000000000000000081526004018080602001828103825260248152602001807f4164647265737320706173736564206973206e6f7420616e20656e747279206281526020017f6f6f74680000000000000000000000000000000000000000000000000000000081525060400191505060405180910390fd5b610e6f85612032565b1515610f09576040517f08c379a00000000000000000000000000000000000000000000000000000000081526004018080602001828103825260238152602001807f4164647265737320706173736564206973206e6f7420616e206578697420626f81526020017f6f7468000000000000000000000000000000000000000000000000000000000081525060400191505060405180910390fd5b600084111515610f81576040517f08c379a000000000000000000000000000000000000000000000000000000000815260040180806020018281038252601c8152602001807f436f756e74206d7573742062652067726561746572207468616e20300000000081525060200191505060405180910390fd5b600860008773ffffffffffffffffffffffffffffffffffffffff1673ffffffffffffffffffffffffffffffffffffffff16815260200190815260200160002060008673ffffffffffffffffffffffffffffffffffffffff1673ffffffffffffffffffffffffffffffffffffffff1681526020019081526020016000206001015490505b838261ffff1610801561101f57506000600102816000191614155b156112315761102f818787612efa565b156111aa5761107d60076000836000191660001916815260200190815260200160002060000160009054906101000a900473ffffffffffffffffffffffffffffffffffffffff16868361307c565b600860008773ffffffffffffffffffffffffffffffffffffffff1673ffffffffffffffffffffffffffffffffffffffff16815260200190815260200160002060008673ffffffffffffffffffffffffffffffffffffffff1673ffffffffffffffffffffffffffffffffffffffff16815260200190815260200160002073__LinkedListQueue_______________________63d1dc127590916040518263ffffffff167c01000000000000000000000000000000000000000000000000000000000281526004018082815260200191505060206040518083038186803b15801561116557600080fd5b505af4158015611179573d6000803e3d6000fd5b505050506040513d602081101561118f57600080fd5b81019080805190602001909291905050505081806001019250505b600860008773ffffffffffffffffffffffffffffffffffffffff1673ffffffffffffffffffffffffffffffffffffffff16815260200190815260200160002060008673ffffffffffffffffffffffffffffffffffffffff1673ffffffffffffffffffffffffffffffffffffffff168152602001908152602001600020600101549050611004565b838261ffff161415611345578161ffff16600960008873ffffffffffffffffffffffffffffffffffffffff1673ffffffffffffffffffffffffffffffffffffffff16815260200190815260200160002060008773ffffffffffffffffffffffffffffffffffffffff1673ffffffffffffffffffffffffffffffffffffffff1681526020019081526020016000205403600960008873ffffffffffffffffffffffffffffffffffffffff1673ffffffffffffffffffffffffffffffffffffffff16815260200190815260200160002060008773ffffffffffffffffffffffffffffffffffffffff1673ffffffffffffffffffffffffffffffffffffffff168152602001908152602001600020819055506113d9565b6040517f08c379a000000000000000000000000000000000000000000000000000000000815260040180806020018281038252603f8152602001807f466577657220736f6c7661626c652070656e64696e67207061796d656e74732081526020017f7468616e20636f756e742c206f7220636f756e7420676976656e20697320300081525060400191505060405180910390fd5b6001925050509392505050565b60008060009054906101000a900473ffffffffffffffffffffffffffffffffffffffff1673ffffffffffffffffffffffffffffffffffffffff163373ffffffffffffffffffffffffffffffffffffffff1614151561144357600080fd5b60001515600260008473ffffffffffffffffffffffffffffffffffffffff1673ffffffffffffffffffffffffffffffffffffffff16815260200190815260200160002060009054906101000a900460ff16151514151561150b576040517f08c379a00000000000000000000000000000000000000000000000000000000081526004018080602001828103825260208152602001807f546f6c6c20626f6f746820697320616c7265616479207265676973746572656481525060200191505060405180910390fd5b60008273ffffffffffffffffffffffffffffffffffffffff161415151561159a576040517f08c379a000000000000000000000000000000000000000000000000000000000815260040180806020018281038252601c8152602001807f546f6c6c20626f6f7468206d757374206265207370656369666965640000000081525060200191505060405180910390fd5b6001600260008473ffffffffffffffffffffffffffffffffffffffff1673ffffffffffffffffffffffffffffffffffffffff16815260200190815260200160002060006101000a81548160ff0219169083151502179055508173ffffffffffffffffffffffffffffffffffffffff163373ffffffffffffffffffffffffffffffffffffffff167fe8f587f6ae5ef5f7560b94b9369dd242c9de0588c328add1a785044abf837c6d60405160405180910390a360019050919050565b60008060009054906101000a900473ffffffffffffffffffffffffffffffffffffffff1673ffffffffffffffffffffffffffffffffffffffff163373ffffffffffffffffffffffffffffffffffffffff161415156116b257600080fd5b600083111515611750576040517f08c379a00000000000000000000000000000000000000000000000000000000081526004018080602001828103825260238152602001807f56656869636c652074797065206d75737420626520677265617465722074686181526020017f6e2030000000000000000000000000000000000000000000000000000000000081525060400191505060405180910390fd5b81600360008581526020019081526020016000205414151515611801576040517f08c379a00000000000000000000000000000000000000000000000000000000081526004018080602001828103825260318152602001807f4e6577206d756c7469706c696572206d75737420626520646966666572656e7481526020017f20666f722076656869636c65207479706500000000000000000000000000000081525060400191505060405180910390fd5b816003600085815260200190815260200160002081905550823373ffffffffffffffffffffffffffffffffffffffff167f5e168e70d5925560e1407b68dc2495afbc25b36217cc6e4167b2cf3f28a46ef1846040518082815260200191505060405180910390a36001905092915050565b600080600080600060149054906101000a900460ff1615151561189457600080fd5b61189d85612088565b925060076000846000191660001916815260200190815260200160002060000160009054906101000a900473ffffffffffffffffffffffffffffffffffffffff1691506000600760008560001916600019168152602001908152602001600020600201541415801561193b575060001515600a6000856000191660001916815260200190815260200160002060009054906101000a900460ff161515145b15156119d5576040517f08c379a00000000000000000000000000000000000000000000000000000000081526004018080602001828103825260388152602001807f416c72656164792065786974656420776974682074686520657869742073656381526020017f7265742068617368206f7220756e6b6e6f776e2068617368000000000000000081525060400191505060405180910390fd5b6119de33612032565b1515611a52576040517f08c379a000000000000000000000000000000000000000000000000000000000815260040180806020018281038252601a8152602001807f53656e646572206973206e6f74206120746f6c6c20626f6f746800000000000081525060200191505060405180910390fd5b6000611a5c612ed0565b73ffffffffffffffffffffffffffffffffffffffff16630d2ce522846040518263ffffffff167c0100000000000000000000000000000000000000000000000000000000028152600401808273ffffffffffffffffffffffffffffffffffffffff1673ffffffffffffffffffffffffffffffffffffffff168152602001915050602060405180830381600087803b158015611af657600080fd5b505af1158015611b0a573d6000803e3d6000fd5b505050506040513d6020811015611b2057600080fd5b810190808051906020019092919050505014151515611bcd576040517f08c379a000000000000000000000000000000000000000000000000000000000815260040180806020018281038252603e8152602001807f56656869636c65206973206e6f74207265676973746572656420616e796d6f7281526020017f652c206e6f7420616c6c6f776564206f6e20726f616420616e796d6f7265000081525060400191505060405180910390fd5b60076000846000191660001916815260200190815260200160002060010160009054906101000a900473ffffffffffffffffffffffffffffffffffffffff1673ffffffffffffffffffffffffffffffffffffffff163373ffffffffffffffffffffffffffffffffffffffff1614151515611cd5576040517f08c379a00000000000000000000000000000000000000000000000000000000081526004018080602001828103825260278152602001807f4578697420626f6f746820616e6420656e74727920626f6f746820617265207481526020017f68652073616d650000000000000000000000000000000000000000000000000081525060400191505060405180910390fd5b60008273ffffffffffffffffffffffffffffffffffffffff1614151515611d8a576040517f08c379a00000000000000000000000000000000000000000000000000000000081526004018080602001828103825260258152602001807f436c6561722073656372657420646f6573206e6f74206d61746368206578697481526020017f206861736800000000000000000000000000000000000000000000000000000081525060400191505060405180910390fd5b60076000846000191660001916815260200190815260200160002060010160009054906101000a900473ffffffffffffffffffffffffffffffffffffffff1690506001600a6000856000191660001916815260200190815260200160002060006101000a81548160ff0219169083151502179055506000611e0b8233611fab565b1415611f9357611e9f83600860008473ffffffffffffffffffffffffffffffffffffffff1673ffffffffffffffffffffffffffffffffffffffff16815260200190815260200160002060003373ffffffffffffffffffffffffffffffffffffffff1673ffffffffffffffffffffffffffffffffffffffff1681526020019081526020016000206132f090919063ffffffff16565b600960008273ffffffffffffffffffffffffffffffffffffffff1673ffffffffffffffffffffffffffffffffffffffff16815260200190815260200160002060003373ffffffffffffffffffffffffffffffffffffffff1673ffffffffffffffffffffffffffffffffffffffff168152602001908152602001600020600081548092919060010191905055503373ffffffffffffffffffffffffffffffffffffffff168173ffffffffffffffffffffffffffffffffffffffff1684600019167f739c4108960ded7f9e5e6790da2d3baebfb37959560441b5787b8c70676d873c60405160405180910390a460029350611fa3565b611f9e82338561307c565b600193505b505050919050565b6000600460008473ffffffffffffffffffffffffffffffffffffffff1673ffffffffffffffffffffffffffffffffffffffff16815260200190815260200160002060008373ffffffffffffffffffffffffffffffffffffffff1673ffffffffffffffffffffffffffffffffffffffff16815260200190815260200160002054905092915050565b6000600260008373ffffffffffffffffffffffffffffffffffffffff1673ffffffffffffffffffffffffffffffffffffffff16815260200190815260200160002060009054906101000a900460ff169050919050565b60008160405180826000191660001916815260200191505060405180910390209050919050565b600080600060076000856000191660001916815260200190815260200160002060000160009054906101000a900473ffffffffffffffffffffffffffffffffffffffff1660076000866000191660001916815260200190815260200160002060010160009054906101000a900473ffffffffffffffffffffffffffffffffffffffff16600760008760001916600019168152602001908152602001600020600201549250925092509193909250565b60008060009054906101000a900473ffffffffffffffffffffffffffffffffffffffff16905090565b60008060149054906101000a900460ff161515156121a457600080fd5b60006121ae612ed0565b73ffffffffffffffffffffffffffffffffffffffff16630d2ce522336040518263ffffffff167c0100000000000000000000000000000000000000000000000000000000028152600401808273ffffffffffffffffffffffffffffffffffffffff1673ffffffffffffffffffffffffffffffffffffffff168152602001915050602060405180830381600087803b15801561224857600080fd5b505af115801561225c573d6000803e3d6000fd5b505050506040513d602081101561227257600080fd5b8101908080519060200190929190505050141515156122f9576040517f08c379a00000000000000000000000000000000000000000000000000000000081526004018080602001828103825260198152602001807f56656869636c65206973206e6f7420726567697374657265640000000000000081525060200191505060405180910390fd5b61230283612032565b1515612376576040517f08c379a000000000000000000000000000000000000000000000000000000000815260040180806020018281038252601f8152602001807f456e74727920626f6f7468206973206e6f74206120746f6c6c20626f6f74680081525060200191505060405180910390fd5b61245b612381612ed0565b73ffffffffffffffffffffffffffffffffffffffff16630d2ce522336040518263ffffffff167c0100000000000000000000000000000000000000000000000000000000028152600401808273ffffffffffffffffffffffffffffffffffffffff1673ffffffffffffffffffffffffffffffffffffffff168152602001915050602060405180830381600087803b15801561241b57600080fd5b505af115801561242f573d6000803e3d6000fd5b505050506040513d602081101561244557600080fd5b8101908080519060200190929190505050612749565b61246361277c565b023410151515612501576040517f08c379a00000000000000000000000000000000000000000000000000000000081526004018080602001828103825260288152602001807f53656e64206d6f7265207468616e2062617365206465706f736974202a206d7581526020017f6c7469706c69657200000000000000000000000000000000000000000000000081525060400191505060405180910390fd5b600060076000846000191660001916815260200190815260200160002060000160009054906101000a900473ffffffffffffffffffffffffffffffffffffffff1673ffffffffffffffffffffffffffffffffffffffff161415156125cd576040517f08c379a000000000000000000000000000000000000000000000000000000000815260040180806020018281038252601d8152602001807f4578697420736563726574206861736820616c7265616479207573656400000081525060200191505060405180910390fd5b6060604051908101604052803373ffffffffffffffffffffffffffffffffffffffff1681526020018473ffffffffffffffffffffffffffffffffffffffff1681526020013481525060076000846000191660001916815260200190815260200160002060008201518160000160006101000a81548173ffffffffffffffffffffffffffffffffffffffff021916908373ffffffffffffffffffffffffffffffffffffffff16021790555060208201518160010160006101000a81548173ffffffffffffffffffffffffffffffffffffffff021916908373ffffffffffffffffffffffffffffffffffffffff1602179055506040820151816002015590505081600019168373ffffffffffffffffffffffffffffffffffffffff163373ffffffffffffffffffffffffffffffffffffffff167f26213b556e4ae8dd63f1f81f4ea6181803d9a3efcad477cd84dcae45a264c30b346040518082815260200191505060405180910390a46001905092915050565b6000600654905090565b600060036000838152602001908152602001600020549050919050565b60008060149054906101000a900460ff16905090565b6000600154905090565b6000600960008473ffffffffffffffffffffffffffffffffffffffff1673ffffffffffffffffffffffffffffffffffffffff16815260200190815260200160002060008373ffffffffffffffffffffffffffffffffffffffff1673ffffffffffffffffffffffffffffffffffffffff16815260200190815260200160002054905092915050565b60003373ffffffffffffffffffffffffffffffffffffffff16600560009054906101000a900473ffffffffffffffffffffffffffffffffffffffff1673ffffffffffffffffffffffffffffffffffffffff161415156128fa576040517f08c379a000000000000000000000000000000000000000000000000000000000815260040180806020018281038252602b8152602001807f43616e206f6e6c792062652063616c6c6564206279207468652063757272656e81526020017f7420726567756c61746f7200000000000000000000000000000000000000000081525060400191505060405180910390fd5b60008273ffffffffffffffffffffffffffffffffffffffff16141515156129af576040517f08c379a00000000000000000000000000000000000000000000000000000000081526004018080602001828103825260218152602001807f4e657720726567756c61746f722063616e6e6f7420626520302061646472657381526020017f730000000000000000000000000000000000000000000000000000000000000081525060400191505060405180910390fd5b600560009054906101000a900473ffffffffffffffffffffffffffffffffffffffff1673ffffffffffffffffffffffffffffffffffffffff168273ffffffffffffffffffffffffffffffffffffffff1614151515612a9b576040517f08c379a000000000000000000000000000000000000000000000000000000000815260040180806020018281038252602c8152602001807f4e657720616e642063757272656e7420726567756c61746f722063616e6e6f7481526020017f206265207468652073616d65000000000000000000000000000000000000000081525060400191505060405180910390fd5b81600560006101000a81548173ffffffffffffffffffffffffffffffffffffffff021916908373ffffffffffffffffffffffffffffffffffffffff1602179055508173ffffffffffffffffffffffffffffffffffffffff163373ffffffffffffffffffffffffffffffffffffffff167fa32c4b1f26f0d877f643f7fb9db131f9cebf04d120fe5ada74c0bdfc808dab8360405160405180910390a360019050919050565b6000806000809054906101000a900473ffffffffffffffffffffffffffffffffffffffff1673ffffffffffffffffffffffffffffffffffffffff163373ffffffffffffffffffffffffffffffffffffffff16141515612b9d57600080fd5b6000600654111515612c17576040517f08c379a00000000000000000000000000000000000000000000000000000000081526004018080602001828103825260138152602001807f4e6f20636f6c6c65637461626c6520666565730000000000000000000000000081525060200191505060405180910390fd5b600654905060006006819055506000809054906101000a900473ffffffffffffffffffffffffffffffffffffffff1673ffffffffffffffffffffffffffffffffffffffff167f851c9440e522074225f247c12030d8a38be67fbda82238aac95d4a4454647f9d826040518082815260200191505060405180910390a23373ffffffffffffffffffffffffffffffffffffffff166108fc829081150290604051600060405180830381858888f19350505050158015612cd9573d6000803e3d6000fd5b50600191505090565b60008060009054906101000a900473ffffffffffffffffffffffffffffffffffffffff1673ffffffffffffffffffffffffffffffffffffffff163373ffffffffffffffffffffffffffffffffffffffff16141515612d3f57600080fd5b612d4a848484613352565b50612dd5600860008673ffffffffffffffffffffffffffffffffffffffff1673ffffffffffffffffffffffffffffffffffffffff16815260200190815260200160002060008573ffffffffffffffffffffffffffffffffffffffff1673ffffffffffffffffffffffffffffffffffffffff168152602001908152602001600020600101548585612efa565b15612de857612de684846001610da3565b505b600190509392505050565b60008060009054906101000a900473ffffffffffffffffffffffffffffffffffffffff1673ffffffffffffffffffffffffffffffffffffffff163373ffffffffffffffffffffffffffffffffffffffff16141515612e5057600080fd5b600082111515612e5f57600080fd5b6001548214151515612e7057600080fd5b816001819055503373ffffffffffffffffffffffffffffffffffffffff167ffa53ebd539f52eb4ef352ffacb2f8f5f8080cd8bb7ebb2f1acab3e1ce4bd65cb6001546040518082815260200191505060405180910390a260019050919050565b6000600560009054906101000a900473ffffffffffffffffffffffffffffffffffffffff16905090565b6000806000612f098585611fab565b1480612f1c575060006001028560001916145b15612f2a5760009150613074565b612f32612ed0565b73ffffffffffffffffffffffffffffffffffffffff16630d2ce52260076000886000191660001916815260200190815260200160002060000160009054906101000a900473ffffffffffffffffffffffffffffffffffffffff166040518263ffffffff167c0100000000000000000000000000000000000000000000000000000000028152600401808273ffffffffffffffffffffffffffffffffffffffff1673ffffffffffffffffffffffffffffffffffffffff168152602001915050602060405180830381600087803b15801561300a57600080fd5b505af115801561301e573d6000803e3d6000fd5b505050506040513d602081101561303457600080fd5b81019080805190602001909291905050509050600081141580156130615750600061305e82612749565b14155b1561306f5760019150613074565b600091505b509392505050565b6000806000806007600086600019166000191681526020019081526020016000206002015493506131e161318b6130b1612ed0565b73ffffffffffffffffffffffffffffffffffffffff16630d2ce5228a6040518263ffffffff167c0100000000000000000000000000000000000000000000000000000000028152600401808273ffffffffffffffffffffffffffffffffffffffff1673ffffffffffffffffffffffffffffffffffffffff168152602001915050602060405180830381600087803b15801561314b57600080fd5b505af115801561315f573d6000803e3d6000fd5b505050506040513d602081101561317557600080fd5b8101908080519060200190929190505050612749565b6131d360076000896000191660001916815260200190815260200160002060010160009054906101000a900473ffffffffffffffffffffffffffffffffffffffff1689611fab565b61388d90919063ffffffff16565b9250828411156131f85782840391508290506131fc565b8390505b600060076000876000191660001916815260200190815260200160002060020181905550613235816006546138c590919063ffffffff16565b60068190555084600019168673ffffffffffffffffffffffffffffffffffffffff167fcc28c1c2c2269c01d739ef1a54d12784fe3052b2f228668ba5f4bc862ebe51bc8385604051808381526020018281526020019250505060405180910390a360008211156132e7578673ffffffffffffffffffffffffffffffffffffffff166108fc839081150290604051600060405180830381858888f193505050501580156132e5573d6000803e3d6000fd5b505b50505050505050565b600060010282600101546000191614156133165780826001018160001916905550613341565b8082600001600084600201546000191660001916815260200190815260200160002081600019169055505b808260020181600019169055505050565b60008060009054906101000a900473ffffffffffffffffffffffffffffffffffffffff1673ffffffffffffffffffffffffffffffffffffffff163373ffffffffffffffffffffffffffffffffffffffff161415156133af57600080fd5b6133b884612032565b151561342c576040517f08c379a000000000000000000000000000000000000000000000000000000000815260040180806020018281038252601d8152602001807f456e74727920626f6f7468206973206e6f74207265676973746572656400000081525060200191505060405180910390fd5b61343583612032565b15156134a9576040517f08c379a000000000000000000000000000000000000000000000000000000000815260040180806020018281038252601c8152602001807f4578697420626f6f7468206973206e6f7420726567697374657265640000000081525060200191505060405180910390fd5b8273ffffffffffffffffffffffffffffffffffffffff168473ffffffffffffffffffffffffffffffffffffffff1614151515613573576040517f08c379a00000000000000000000000000000000000000000000000000000000081526004018080602001828103825260278152602001807f456e74727920616e64206578697420626f6f74682063616e6e6f74206265207481526020017f68652073616d650000000000000000000000000000000000000000000000000081525060400191505060405180910390fd5b60008473ffffffffffffffffffffffffffffffffffffffff1614151515613602576040517f08c379a00000000000000000000000000000000000000000000000000000000081526004018080602001828103825260208152602001807f456e74727920626f6f74682063616e6e6f74206265203078206164647265737381525060200191505060405180910390fd5b60008373ffffffffffffffffffffffffffffffffffffffff1614151515613691576040517f08c379a00000000000000000000000000000000000000000000000000000000081526004018080602001828103825260208152602001807f456e74727920626f6f74682063616e6e6f74206265203078206164647265737381525060200191505060405180910390fd5b81600460008673ffffffffffffffffffffffffffffffffffffffff1673ffffffffffffffffffffffffffffffffffffffff16815260200190815260200160002060008573ffffffffffffffffffffffffffffffffffffffff1673ffffffffffffffffffffffffffffffffffffffff1681526020019081526020016000205414151515613785576040517f08c379a00000000000000000000000000000000000000000000000000000000081526004018080602001828103825260128152602001807f4e6f206368616e676520696e207072696365000000000000000000000000000081525060200191505060405180910390fd5b81600460008673ffffffffffffffffffffffffffffffffffffffff1673ffffffffffffffffffffffffffffffffffffffff16815260200190815260200160002060008573ffffffffffffffffffffffffffffffffffffffff1673ffffffffffffffffffffffffffffffffffffffff168152602001908152602001600020819055508273ffffffffffffffffffffffffffffffffffffffff168473ffffffffffffffffffffffffffffffffffffffff163373ffffffffffffffffffffffffffffffffffffffff167f5b631b37e5dfb698eace7497bcae58e93fac69e007127739fc79109d99c58332856040518082815260200191505060405180910390a4600190509392505050565b6000808314156138a057600090506138bf565b81830290508183828115156138b157fe5b041415156138bb57fe5b8090505b92915050565b600081830190508281101515156138d857fe5b809050929150505600a165627a7a723058207cd0cf15d3c9eac4cd7178bc246cce4ccb0db9357936f47efb4367a0164f4ff20029",
  "source": "pragma solidity ^0.4.24;\n\nimport \"./interfaces/TollBoothOperatorI.sol\";\nimport \"./Pausable.sol\";\nimport \"./DepositHolder.sol\";\nimport \"./TollBoothHolder.sol\";\nimport \"./MultiplierHolder.sol\";\nimport \"./RoutePriceHolder.sol\";\nimport \"./Regulated.sol\";\nimport \"./SafeMath.sol\";\nimport \"./LinkedListQueue.sol\";\n\ncontract TollBoothOperator is TollBoothOperatorI, Pausable, DepositHolder, TollBoothHolder, \n                              MultiplierHolder, RoutePriceHolder, Regulated {\n\n    using SafeMath for uint;\n    using LinkedListQueue for LinkedListQueue.Meta;\n\n    struct Trip {\n        address vehicle;\n        address entryBooth;\n        uint depositedWeis; \n        /* depositedWeis will be set to zero after exiting the road. This way, it can be detected\n         * later when exiting the road with the same exit secret hash. \n         * The trip cannot be deleted, as it would not possible to detect if a hash has already been used.\n         * On entering the road, a check is made if the vehicle attribute is filled. If so, another\n         * hash must be generated. \n         */\n    }\n\n    struct EntryExit {\n        address vehicle;\n        bool entry;\n        bool exit;\n    }\n    \n    /**\n     * @param entryBooth the entry booth that has pending payments.\n     * @param exitBooth the exit booth that has pending payments.\n     * @return the number of payments that are pending because the price for the\n     * entry-exit pair was unknown.\n     */\n    function getPendingPaymentCount(address entryBooth, address exitBooth)\n        view public returns (uint) {\n\n        return pendingPaymentsCount[entryBooth][exitBooth];\n\n    }\n\n    uint collectableFees;\n    mapping(bytes32 => Trip) trips;\n    /* \n     * Use a Linked List data structure to assure constant inserts and retrievals \n     */\n    mapping(address => mapping(address => LinkedListQueue.Meta)) pendingPayments;\n    mapping(address => mapping(address => uint)) pendingPaymentsCount;\n    /**\n     * Also keep track if a vehicle already made an attemp to exit. If so, a subsequent\n     * attempt to try exit again should be denied\n     **/\n    mapping(bytes32 => bool) exitAttempts; \n\n    constructor (bool paused, uint baseDeposit, address regulator) public\n        Pausable(paused)\n        DepositHolder(baseDeposit)\n        Regulated(regulator) {\n\n        require(baseDeposit > 0, \"Base deposit must be greater than 0\");\n        require(regulator != 0x0, \"Regulator address cannot be 0x0\");\n\n    }\n\n    /**\n     * Event emitted when a vehicle made the appropriate deposit to enter the road system.\n     * @param vehicle The address of the vehicle that entered the road system.\n     * @param entryBooth The declared entry booth by which the vehicle will enter the system.\n     * @param exitSecretHashed A hashed secret that, when solved, allows the operator to pay itself.\n     * @param depositedWeis The amount that was deposited as part of the entry.\n     */\n    event LogRoadEntered(\n        address indexed vehicle, address indexed entryBooth, \n        bytes32 indexed exitSecretHashed, uint depositedWeis);\n\n    /**\n     * Event emitted when a vehicle exits a road system.\n     * @param exitBooth The toll booth that saw the vehicle exit.\n     * @param exitSecretHashed The hash of the secret given by the vehicle as it\n     *     passed by the exit booth.\n     * @param finalFee The toll charge effectively paid by the vehicle, and taken from the deposit.\n     * @param refundWeis The amount refunded to the vehicle, i.e. deposit - charge.\n     */\n    event LogRoadExited(\n        address indexed exitBooth, bytes32 indexed exitSecretHashed, \n        uint finalFee, uint refundWeis);\n\n    /**\n     * Event emitted when a vehicle used a route that has no known fee.\n     * It is a signal for the oracle to provide a price for the entry / exit pair.\n     * @param exitSecretHashed The hashed secret that was defined at the time of entry.\n     * @param entryBooth The address of the booth the vehicle entered at.\n     * @param exitBooth The address of the booth the vehicle exited at.\n     */\n    event LogPendingPayment(\n        bytes32 indexed exitSecretHashed, address indexed entryBooth, \n        address indexed exitBooth);\n\n    /**\n     * Event emitted when the owner collects the fees.\n     * @param owner The account that sent the request.\n     * @param amount The amount collected.\n     */\n    event LogFeesCollected(address indexed owner, uint amount);\n\n    /**\n     * Don't allow the fall back function to be called\n     */\n    function() public {\n        \n        revert(\"Fallback function not callable\");\n        \n    }\n\n    /**\n     * Called by the vehicle entering a road system.\n     * Off-chain, the entry toll booth will open its gate after a successful deposit and a confirmation\n     * of the vehicle identity.\n     *     It should roll back when the contract is in the `true` paused state.\n     *     It should roll back when the vehicle is not a registered vehicle.\n     *     It should roll back when the vehicle is not allowed on this road system.\n     *     It should roll back if `entryBooth` is not a tollBooth.\n     *     It should roll back if less than deposit * multiplier was sent alongside.\n     *     It should roll back if `exitSecretHashed` has previously been used by anyone to enter.\n     *     It should be possible for a vehicle to enter \"again\" before it has exited from the \n     *       previous entry.\n     * @param entryBooth The declared entry booth by which the vehicle will enter the system.\n     * @param exitSecretHashed A hashed secret that when solved allows the operator to pay itself.\n     * @return Whether the action was successful.\n     * Emits LogRoadEntered with:\n     *     The sender of the action.\n     *     The address of the entry booth.\n     *     The hashed secret used to deposit.\n     *     The amount deposited by the vehicle.\n     */\n    function enterRoad(address entryBooth, bytes32 exitSecretHashed)\n        whenNotPaused public payable returns (bool) {\n\n        require(getRegulator().getVehicleType(msg.sender) != 0, \"Vehicle is not registered\");\n        require(isTollBooth(entryBooth), \"Entry booth is not a toll booth\");\n        require(msg.value >= (getDeposit() * getMultiplier(getRegulator().getVehicleType(msg.sender))), \n                \"Send more than base deposit * multiplier\");\n        require(trips[exitSecretHashed].vehicle == 0x0, \"Exit secret hash already used\");\n\n        trips[exitSecretHashed] = Trip(msg.sender, entryBooth, msg.value);\n\n        emit LogRoadEntered(msg.sender, entryBooth, exitSecretHashed, msg.value);\n\n        return true;\n    }\n\n    /**\n     * Called by the exit booth.\n     *     It should roll back when the contract is in the `true` paused state.\n     *     It should roll back when the sender is not a toll booth.\n     *     It should roll back when the vehicle is no longer a registered vehicle.\n     *     It should roll back when the vehicle is no longer allowed on this road system.\n     *     It should roll back if the exit is same as the entry.\n     *     It should roll back if hashing the secret does not match a hashed one.\n     *     It should roll back if the secret has already been reported on exit.\n     * @param exitSecretClear The secret given by the vehicle as it passed by the exit booth. Passing a `0` secret is a valid input.\n     * @return status:\n     *   1: success, -> emits LogRoadExited with:\n     *       The sender of the action.\n     *       The hashed secret corresponding to the vehicle trip.\n     *       The effective charge paid by the vehicle.\n     *       The amount refunded to the vehicle.\n     *   2: pending oracle -> emits LogPendingPayment with:\n     *       The hashed secret corresponding to the vehicle trip.\n     *       The entry booth of the vehicle trip.\n     *       The exit booth of the vehicle trip.\n     */\n    function reportExitRoad(bytes32 exitSecretClear) \n        whenNotPaused\n        public returns (uint) {\n\n        bytes32 exitSecretHashed = hashSecret(exitSecretClear);\n        address vehicle = trips[exitSecretHashed].vehicle;\n\n        require(trips[exitSecretHashed].depositedWeis != 0 && \n                exitAttempts[exitSecretHashed] == false, \n                \"Already exited with the exit secret hash or unknown hash\");   \n        require(isTollBooth(msg.sender), \"Sender is not a toll booth\");\n        require(getRegulator().getVehicleType(vehicle) != 0, \n                \"Vehicle is not registered anymore, not allowed on road anymore\");\n        require(msg.sender != trips[exitSecretHashed].entryBooth, \n                \"Exit booth and entry booth are the same\");\n        require(vehicle != 0x0, \"Clear secret does not match exit hash\");\n\n        address entryBooth = trips[exitSecretHashed].entryBooth;\n        exitAttempts[exitSecretHashed] = true;\n        if (getRoutePrice(entryBooth, msg.sender) == 0) {\n            // Price is unknown, make a pending payment\n            pendingPayments[entryBooth][msg.sender].add(exitSecretHashed);\n            pendingPaymentsCount[entryBooth][msg.sender]++;\n            emit LogPendingPayment(exitSecretHashed, entryBooth, msg.sender);\n            return 2;\n        }\n        else {\n            // Price is known, exit the vehicle\n            exitVehicle(vehicle, msg.sender, exitSecretHashed);\n            return 1;\n        }\n\n    }\n\n    /**\n     * Function that manages the action of exiting of the vehicle\n     *\n     * @param exitSecretHashed vehicle's exit secret hash\n     * @param exitBooth the exit booth        \n     */\n    function exitVehicle(address vehicle, address exitBooth, bytes32 exitSecretHashed) \n        internal {\n\n        uint deposit = trips[exitSecretHashed].depositedWeis;\n        uint routePrice = getRoutePrice(trips[exitSecretHashed].entryBooth, exitBooth)\n            .mul(getMultiplier(getRegulator().getVehicleType(vehicle))); // SafeMath mul\n        uint refundWeis;\n        uint finalFee;\n        if (deposit > routePrice) {\n            /*\n             * SafeMath not necessary, cannot be smaller than 0, underflowing not possible\n             */\n            refundWeis = deposit - routePrice; \n            finalFee = routePrice;\n        }\n        else {\n            finalFee = deposit;\n        }\n\n        /*\n         * Exit, don't delete the trip, to detect later usage of the same hash. Instead,\n         * set the depositedWeis to 0. This way, when entering the road again for the second \n         * time with the same hash, it is detected that vehicle address is filled, which is bad.\n         * Also when exiting the road for the second time, the depositedWeis is 0, so \n         * it's good that that can be detected as well.\n         */\n        trips[exitSecretHashed].depositedWeis = 0;\n\n        collectableFees = collectableFees.add(finalFee);  // SafeMath add, prevent overflows\n        emit LogRoadExited(exitBooth, exitSecretHashed, finalFee, refundWeis);\n        if (refundWeis > 0) {\n            vehicle.transfer(refundWeis);\n        }\n\n    }\n\n    /**\n     * Can be called by anyone. In case more than 1 payment was pending when the oracle gave a price.\n     *     It should roll back when the contract is in `true` paused state.\n     *     It should roll back if booths are not really booths.\n     *     It should roll back if there are fewer than `count` pending payments that are solvable.\n     *     It should roll back if `count` is `0`.\n     * @param entryBooth the entry booth that has pending payments.\n     * @param exitBooth the exit booth that has pending payments.\n     * @param count the number of pending payments to clear for the exit booth.\n     * @return Whether the action was successful.\n     * Emits LogRoadExited as many times as count, each with:\n     *       The address of the exit booth.\n     *       The hashed secret corresponding to the vehicle trip.\n     *       The effective charge paid by the vehicle.\n     *       The amount refunded to the vehicle.\n     */\n\n    function clearSomePendingPayments(address entryBooth, address exitBooth, uint count)\n        whenNotPaused public returns (bool) {\n\n        require(isTollBooth(entryBooth), \"Address passed is not an entry booth\");\n        require(isTollBooth(exitBooth), \"Address passed is not an exit booth\");\n        require(count > 0, \"Count must be greater than 0\");\n\n        /*\n         * SafeMath not necessary in below for loop, i is bound between 0 and count,\n         * no wrapping possible\n         */\n\n        uint16 clearedCount;\n        bytes32 exitSecretHashed = pendingPayments[entryBooth][exitBooth].head;\n        while (clearedCount < count && exitSecretHashed != 0x0) {\n            if (isPendingPaymentSolvable(exitSecretHashed, entryBooth, exitBooth)) {\n                /**\n                 * Note that when called from setRoutePrice, there are two calls to \n                 * isPendingPaymentSolvable(). But when called from clearSomePendingPayments directly, \n                 * it should roll back in some circumstances. When called from setRoutePrice, it \n                 * should not roll back when no solvable pending payments are found. So from \n                 * setRoutePrice, a call to clearSomePendingPayments is not possible without first \n                 * checking whether the first pending payment is solvable. \n                 */\n                exitVehicle(trips[exitSecretHashed].vehicle, exitBooth, exitSecretHashed);\n                pendingPayments[entryBooth][exitBooth].poll();\n                clearedCount++;\n            }\n            exitSecretHashed = pendingPayments[entryBooth][exitBooth].head;            \n        }\n\n        if (clearedCount == count) {\n            pendingPaymentsCount[entryBooth][exitBooth] = pendingPaymentsCount[entryBooth][exitBooth] - clearedCount;\n        }\n        else {\n            revert(\"Fewer solvable pending payments than count, or count given is 0\");\n        }\n\n        return true;\n\n    }\n\n   /**\n     * This function overrides the eponymous function of `RoutePriceHolderI`, to which it adds the following\n     * functionality:\n     *     - If relevant, it will release 1 pending payment for this route. As part of this payment\n     *       release, it will emit the appropriate `LogRoadExited` event.\n     *     - In the case where the next relevant pending payment, i.e. at the top of the FIFO, is not solvable,\n     *       which can happen if, for instance the vehicle has had wrongly set values (such as type or multiplier)\n     *       in the interim:\n     *       - It should release 0 pending payment\n     *       - It should not roll back the transaction\n     *       - It should behave as if there had been no pending payment, apart from the higher gas consumed.\n     *     - It should be possible to call it even when the contract is in the `true` paused state.\n     * @param entryBooth The address of the entry booth of the route set.\n     * @param exitBooth The address of the exit booth of the route set.\n     * @param priceWeis The price in weis of the new route.\n     * @return Whether the action was successful.\n     * Emits LogRoadExited, if applicable, with:\n     *       The address of the exit booth.\n     *       The hashed secret corresponding to the vehicle trip.\n     *       The effective charge paid by the vehicle.\n     *       The amount refunded to the vehicle.\n     */\n    function setRoutePrice(address entryBooth, address exitBooth, uint priceWeis) \n        onlyWhenOwner public returns(bool) {\n\n        // First execute the default behavior\n        RoutePriceHolder.setRoutePrice(entryBooth, exitBooth, priceWeis);\n        if (isPendingPaymentSolvable(pendingPayments[entryBooth][exitBooth].head, entryBooth, exitBooth)) {\n            /**\n                * Note: This function (setRoutePrice), should not roll back. Check before going into the \n                * clearSomePendingPayments function to prevent that roll back\n                */\n            clearSomePendingPayments(entryBooth, exitBooth, 1);\n        }\n\n        return true;\n\n    }\n\n    /**\n     * This function checks the whether the vehicle that is found in the mapping entryBooth -> exitBooth, \n     * at the first slot, has the correct vehicle type and multiplier type (is solvable). It also checks\n     * whether the route price is set.\n     * @param exitSecretHashed The exit secret hash\n     * @return Whether pending payment is solvable.\n     */\n    function isPendingPaymentSolvable(bytes32 exitSecretHashed, address entryBooth, address exitBooth) \n        internal view returns (bool) {\n\n        if (getRoutePrice(entryBooth, exitBooth) == 0 || exitSecretHashed == 0x0) {\n            return false;\n        }\n        else {\n            uint vehicleType = getRegulator().getVehicleType(trips[exitSecretHashed].vehicle);\n            if (vehicleType != 0 && getMultiplier(vehicleType) != 0) {\n                return true;\n            }\n            else {\n                return false;\n            }\n        }\n        \n    }\n\n    /**\n     * @return The amount that has been collected through successful payments. This is the current\n     *   amount, it does not reflect historical fees. So this value goes back to zero after a call\n     *   to `withdrawCollectedFees`.\n     */\n    function getCollectedFeesAmount() view public returns (uint) {\n\n        return collectableFees;\n\n    }\n\n    /**\n     * Called by the owner of the contract to withdraw all collected fees (not deposits) to date.\n     *     It should roll back if any other address is calling this function.\n     *     It should roll back if there is no fee to collect.\n     *     It should roll back if the transfer failed.\n     * @return success Whether the operation was successful.\n     * Emits LogFeesCollected with:\n     *     The sender of the action.\n     *     The amount collected.\n     */\n    function withdrawCollectedFees()\n        onlyWhenOwner public returns (bool) {\n\n        require(collectableFees > 0, \"No collectable fees\");\n\n        uint amountToWithDraw = collectableFees;\n        collectableFees = 0;\n        emit LogFeesCollected(owner, amountToWithDraw);\n        msg.sender.transfer(amountToWithDraw);\n\n        return true;\n\n    }\n\n    /**\n     * This provides a single source of truth for the encoding algorithm.\n     * It will be called:\n     *     - by the vehicle prior to sending a deposit.\n     *     - by the contract itself when submitted a clear password by a toll booth.\n     * @param secret The secret to be hashed. Passing a `0` secret is a valid input.\n     * @return the hashed secret.\n     */\n    function hashSecret(bytes32 secret) view public returns (bytes32) {\n\n        return keccak256(secret); // Don't use the abi.encodePacked function, too much gas!\n        \n    }\n\n    /**\n     * @param exitSecretHashed The hashed secret used by the vehicle when entering the road.\n     * @return The information pertaining to the entry of the vehicle.\n     *     vehicle: the address of the vehicle that entered the system.\n     *     entryBooth: the address of the booth the vehicle entered at.\n     *     depositedWeis: how much the vehicle deposited when entering.\n     * After the vehicle has exited, and the operator has been paid, `depositedWeis` should be returned as `0`.\n     *     The `depositedWeis` should remain unchanged while there is a corresponding pending exit.\n     * If no vehicles had ever entered with this hash, all values should be returned as `0`.\n     */\n    function getVehicleEntry(bytes32 exitSecretHashed) \n        view public returns(address, address, uint) {\n\n        return (trips[exitSecretHashed].vehicle,\n            trips[exitSecretHashed].entryBooth,\n            trips[exitSecretHashed].depositedWeis\n        );\n\n    }\n\n}\n",
  "sourcePath": "/home/vagrant/DAPPS/ivo_willemsen-code/contracts/TollBoothOperator.sol",
  "compiler": {
    "name": "solc",
    "version": "0.4.24+commit.e67f0147.Emscripten.clang"
  },
  "schemaVersion": "2.0.1",
  "updatedAt": "2018-10-16T17:03:01.214Z"
}