{
  "contractName": "DepositHolder",
  "abi": [
    {
      "constant": false,
      "inputs": [
        {
          "name": "newOwner",
          "type": "address"
        }
      ],
      "name": "setOwner",
      "outputs": [
        {
          "name": "",
          "type": "bool"
        }
      ],
      "payable": false,
      "stateMutability": "nonpayable",
      "type": "function"
    },
    {
      "constant": true,
      "inputs": [],
      "name": "getOwner",
      "outputs": [
        {
          "name": "",
          "type": "address"
        }
      ],
      "payable": false,
      "stateMutability": "view",
      "type": "function"
    },
    {
      "inputs": [
        {
          "name": "_amount",
          "type": "uint256"
        }
      ],
      "payable": false,
      "stateMutability": "nonpayable",
      "type": "constructor"
    },
    {
      "anonymous": false,
      "inputs": [
        {
          "indexed": true,
          "name": "sender",
          "type": "address"
        },
        {
          "indexed": false,
          "name": "depositWeis",
          "type": "uint256"
        }
      ],
      "name": "LogDepositSet",
      "type": "event"
    },
    {
      "anonymous": false,
      "inputs": [
        {
          "indexed": true,
          "name": "previousOwner",
          "type": "address"
        },
        {
          "indexed": true,
          "name": "newOwner",
          "type": "address"
        }
      ],
      "name": "LogOwnerSet",
      "type": "event"
    },
    {
      "constant": false,
      "inputs": [
        {
          "name": "depositWeis",
          "type": "uint256"
        }
      ],
      "name": "setDeposit",
      "outputs": [
        {
          "name": "",
          "type": "bool"
        }
      ],
      "payable": false,
      "stateMutability": "nonpayable",
      "type": "function"
    },
    {
      "constant": true,
      "inputs": [],
      "name": "getDeposit",
      "outputs": [
        {
          "name": "",
          "type": "uint256"
        }
      ],
      "payable": false,
      "stateMutability": "view",
      "type": "function"
    }
  ],
  "bytecode": "0x608060405234801561001057600080fd5b5060405160208061050183398101806040528101908080519060200190929190505050336000806101000a81548173ffffffffffffffffffffffffffffffffffffffff021916908373ffffffffffffffffffffffffffffffffffffffff16021790555060008111151561008257600080fd5b8060018190555050610468806100996000396000f300608060405260043610610062576000357c0100000000000000000000000000000000000000000000000000000000900463ffffffff16806313af403514610067578063893d20e8146100c2578063c399ec8814610119578063f5bade6614610144575b600080fd5b34801561007357600080fd5b506100a8600480360381019080803573ffffffffffffffffffffffffffffffffffffffff169060200190929190505050610189565b604051808215151515815260200191505060405180910390f35b3480156100ce57600080fd5b506100d761032c565b604051808273ffffffffffffffffffffffffffffffffffffffff1673ffffffffffffffffffffffffffffffffffffffff16815260200191505060405180910390f35b34801561012557600080fd5b5061012e610355565b6040518082815260200191505060405180910390f35b34801561015057600080fd5b5061016f6004803603810190808035906020019092919050505061035f565b604051808215151515815260200191505060405180910390f35b60008060009054906101000a900473ffffffffffffffffffffffffffffffffffffffff1673ffffffffffffffffffffffffffffffffffffffff163373ffffffffffffffffffffffffffffffffffffffff161415156101e657600080fd5b6000809054906101000a900473ffffffffffffffffffffffffffffffffffffffff1673ffffffffffffffffffffffffffffffffffffffff168273ffffffffffffffffffffffffffffffffffffffff161415151561024257600080fd5b60008273ffffffffffffffffffffffffffffffffffffffff161415151561026857600080fd5b8173ffffffffffffffffffffffffffffffffffffffff166000809054906101000a900473ffffffffffffffffffffffffffffffffffffffff1673ffffffffffffffffffffffffffffffffffffffff167fa1d2149652d81eb35c360c115fc7ac594124cb1ea8a5a33e9a7f5768c62869fb60405160405180910390a3816000806101000a81548173ffffffffffffffffffffffffffffffffffffffff021916908373ffffffffffffffffffffffffffffffffffffffff16021790555060019050919050565b60008060009054906101000a900473ffffffffffffffffffffffffffffffffffffffff16905090565b6000600154905090565b60008060009054906101000a900473ffffffffffffffffffffffffffffffffffffffff1673ffffffffffffffffffffffffffffffffffffffff163373ffffffffffffffffffffffffffffffffffffffff161415156103bc57600080fd5b6000821115156103cb57600080fd5b60015482141515156103dc57600080fd5b816001819055503373ffffffffffffffffffffffffffffffffffffffff167ffa53ebd539f52eb4ef352ffacb2f8f5f8080cd8bb7ebb2f1acab3e1ce4bd65cb6001546040518082815260200191505060405180910390a2600190509190505600a165627a7a723058207e49a96ebc6c31a183f79a672a8cf1048b7ba72f1fe4cd6024146fdd3e99588c0029",
  "source": "pragma solidity ^0.4.24;\n\nimport \"./Owned.sol\";\nimport \"./interfaces/DepositHolderI.sol\";\n\ncontract DepositHolder is Owned, DepositHolderI {\n    uint amount;    \n\n    constructor(uint _amount) Owned() public {\n\n        require(_amount > 0);\n        amount = _amount;\n\n    }\n\n    /**\n     * Event emitted when the deposit value has been set.\n     * @param sender The account that ran the action.\n     * @param depositWeis The value of the deposit measured in weis.\n     */\n    event LogDepositSet(address indexed sender, uint depositWeis);\n\n    /**\n     * Called by the owner of the DepositHolder.\n     *     It should roll back if the caller is not the owner of the contract.\n     *     It should roll back if the argument passed is 0.\n     *     It should roll back if the argument is no different from the current deposit.\n     * @param depositWeis The value of the deposit being set, measured in weis.\n     * @return Whether the action was successful.\n     * Emits LogDepositSet with:\n     *     The sender of the action.\n     *     The new value that was set.\n     */\n    function setDeposit(uint depositWeis)\n        onlyWhenOwner() public returns (bool) {\n\n        require(depositWeis > 0);\n        require(depositWeis != amount);\n\n        amount = depositWeis;\n\n        emit LogDepositSet(msg.sender, amount);\n        return true;\n\n    }\n\n    /**\n     * @return The base price, then to be multiplied by the multiplier, a given vehicle\n     * needs to deposit to enter the road system.\n     */\n    function getDeposit()\n        public view returns(uint) {\n\n        return amount;\n\n    }\n\n}\n",
  "sourcePath": "/home/vagrant/DAPPS/ivo_willemsen-code/contracts/DepositHolder.sol",
  "compiler": {
    "name": "solc",
    "version": "0.4.24+commit.e67f0147.Emscripten.clang"
  },
  "schemaVersion": "2.0.1",
  "updatedAt": "2018-10-16T17:02:42.503Z"
}