{
  "contractName": "MultiplierHolder",
  "abi": [
    {
      "constant": false,
      "inputs": [
        {
          "name": "newOwner",
          "type": "address"
        }
      ],
      "name": "setOwner",
      "outputs": [
        {
          "name": "",
          "type": "bool"
        }
      ],
      "payable": false,
      "stateMutability": "nonpayable",
      "type": "function"
    },
    {
      "constant": true,
      "inputs": [],
      "name": "getOwner",
      "outputs": [
        {
          "name": "",
          "type": "address"
        }
      ],
      "payable": false,
      "stateMutability": "view",
      "type": "function"
    },
    {
      "inputs": [],
      "payable": false,
      "stateMutability": "nonpayable",
      "type": "constructor"
    },
    {
      "anonymous": false,
      "inputs": [
        {
          "indexed": true,
          "name": "sender",
          "type": "address"
        },
        {
          "indexed": true,
          "name": "vehicleType",
          "type": "uint256"
        },
        {
          "indexed": false,
          "name": "multiplier",
          "type": "uint256"
        }
      ],
      "name": "LogMultiplierSet",
      "type": "event"
    },
    {
      "anonymous": false,
      "inputs": [
        {
          "indexed": true,
          "name": "previousOwner",
          "type": "address"
        },
        {
          "indexed": true,
          "name": "newOwner",
          "type": "address"
        }
      ],
      "name": "LogOwnerSet",
      "type": "event"
    },
    {
      "constant": false,
      "inputs": [
        {
          "name": "vehicleType",
          "type": "uint256"
        },
        {
          "name": "multiplier",
          "type": "uint256"
        }
      ],
      "name": "setMultiplier",
      "outputs": [
        {
          "name": "",
          "type": "bool"
        }
      ],
      "payable": false,
      "stateMutability": "nonpayable",
      "type": "function"
    },
    {
      "constant": true,
      "inputs": [
        {
          "name": "vehicleType",
          "type": "uint256"
        }
      ],
      "name": "getMultiplier",
      "outputs": [
        {
          "name": "",
          "type": "uint256"
        }
      ],
      "payable": false,
      "stateMutability": "view",
      "type": "function"
    }
  ],
  "bytecode": "0x608060405234801561001057600080fd5b50336000806101000a81548173ffffffffffffffffffffffffffffffffffffffff021916908373ffffffffffffffffffffffffffffffffffffffff1602179055506105db806100606000396000f300608060405260043610610062576000357c0100000000000000000000000000000000000000000000000000000000900463ffffffff16806313af403514610067578063333271d0146100c2578063893d20e814610111578063adf8252d14610168575b600080fd5b34801561007357600080fd5b506100a8600480360381019080803573ffffffffffffffffffffffffffffffffffffffff1690602001909291905050506101a9565b604051808215151515815260200191505060405180910390f35b3480156100ce57600080fd5b506100f7600480360381019080803590602001909291908035906020019092919050505061034c565b604051808215151515815260200191505060405180910390f35b34801561011d57600080fd5b50610126610569565b604051808273ffffffffffffffffffffffffffffffffffffffff1673ffffffffffffffffffffffffffffffffffffffff16815260200191505060405180910390f35b34801561017457600080fd5b5061019360048036038101908080359060200190929190505050610592565b6040518082815260200191505060405180910390f35b60008060009054906101000a900473ffffffffffffffffffffffffffffffffffffffff1673ffffffffffffffffffffffffffffffffffffffff163373ffffffffffffffffffffffffffffffffffffffff1614151561020657600080fd5b6000809054906101000a900473ffffffffffffffffffffffffffffffffffffffff1673ffffffffffffffffffffffffffffffffffffffff168273ffffffffffffffffffffffffffffffffffffffff161415151561026257600080fd5b60008273ffffffffffffffffffffffffffffffffffffffff161415151561028857600080fd5b8173ffffffffffffffffffffffffffffffffffffffff166000809054906101000a900473ffffffffffffffffffffffffffffffffffffffff1673ffffffffffffffffffffffffffffffffffffffff167fa1d2149652d81eb35c360c115fc7ac594124cb1ea8a5a33e9a7f5768c62869fb60405160405180910390a3816000806101000a81548173ffffffffffffffffffffffffffffffffffffffff021916908373ffffffffffffffffffffffffffffffffffffffff16021790555060019050919050565b60008060009054906101000a900473ffffffffffffffffffffffffffffffffffffffff1673ffffffffffffffffffffffffffffffffffffffff163373ffffffffffffffffffffffffffffffffffffffff161415156103a957600080fd5b600083111515610447576040517f08c379a00000000000000000000000000000000000000000000000000000000081526004018080602001828103825260238152602001807f56656869636c652074797065206d75737420626520677265617465722074686181526020017f6e2030000000000000000000000000000000000000000000000000000000000081525060400191505060405180910390fd5b816001600085815260200190815260200160002054141515156104f8576040517f08c379a00000000000000000000000000000000000000000000000000000000081526004018080602001828103825260318152602001807f4e6577206d756c7469706c696572206d75737420626520646966666572656e7481526020017f20666f722076656869636c65207479706500000000000000000000000000000081525060400191505060405180910390fd5b816001600085815260200190815260200160002081905550823373ffffffffffffffffffffffffffffffffffffffff167f5e168e70d5925560e1407b68dc2495afbc25b36217cc6e4167b2cf3f28a46ef1846040518082815260200191505060405180910390a36001905092915050565b60008060009054906101000a900473ffffffffffffffffffffffffffffffffffffffff16905090565b6000600160008381526020019081526020016000205490509190505600a165627a7a72305820bfde24dc506fc931a79512aca1047868533564592fbda6e3d5779399bb16064e0029",
  "source": "pragma solidity ^0.4.24;\n\nimport \"./Owned.sol\";\nimport \"./interfaces/MultiplierHolderI.sol\";\n\ncontract MultiplierHolder is Owned, MultiplierHolderI  {\n\n    mapping(uint => uint) vehicleTypeToMultipliers;\n\n    /**\n     * Event emitted when a new multiplier has been set.\n     * @param sender The account that ran the action.\n     * @param vehicleType The type of vehicle for which the multiplier was set.\n     * @param multiplier The actual multiplier set.\n     */\n    event LogMultiplierSet(address indexed sender, uint indexed vehicleType, uint multiplier);\n\n    constructor() public {\n    }\n\n    /**\n     * Called by the owner of the MultiplierHolder.\n     *     Can be used to update a value.\n     *     It should roll back if the caller is not the owner of the contract.\n     *     It should roll back if the vehicle type is 0.\n     *     Setting the multiplier to 0 is equivalent to removing it and is an acceptable action.\n     *     It should roll back if the same multiplier is already set to the vehicle type.\n     * @param vehicleType The type of the vehicle being set.\n     * @param multiplier The multiplier to use.\n     * @return Whether the action was successful.\n     * Emits LogMultiplierSet with:\n     *     The sender of the action.\n     *     The vehicle type that was modified.\n     *     The new multiplier that was set.\n     */\n    function setMultiplier(uint vehicleType, uint multiplier) \n        onlyWhenOwner public returns (bool) {\n\n        require(vehicleType > 0, \"Vehicle type must be greater than 0\");\n        require(vehicleTypeToMultipliers[vehicleType] != multiplier, \n                \"New multiplier must be different for vehicle type\");\n\n        vehicleTypeToMultipliers[vehicleType] = multiplier;\n        emit LogMultiplierSet(msg.sender, vehicleType, multiplier);\n\n        return true;\n\n    }\n\n    /**\n     * @param vehicleType The type of vehicle whose multiplier we want\n     *     It should accept a vehicle type equal to 0.\n     * @return The multiplier for this vehicle type.\n     *     A 0 value indicates a non-existent multiplier.\n     */\n    function getMultiplier(uint vehicleType) view public returns (uint) {\n\n        return vehicleTypeToMultipliers[vehicleType];\n\n    }\n\n}\n",
  "sourcePath": "/home/vagrant/DAPPS/ivo_willemsen-code/contracts/MultiplierHolder.sol",
  "compiler": {
    "name": "solc",
    "version": "0.4.24+commit.e67f0147.Emscripten.clang"
  },
  "schemaVersion": "2.0.1",
  "updatedAt": "2018-10-16T17:02:42.517Z"
}