{
  "contractName": "RoutePriceHolder",
  "abi": [
    {
      "constant": false,
      "inputs": [
        {
          "name": "tollBooth",
          "type": "address"
        }
      ],
      "name": "removeTollBooth",
      "outputs": [
        {
          "name": "success",
          "type": "bool"
        }
      ],
      "payable": false,
      "stateMutability": "nonpayable",
      "type": "function"
    },
    {
      "constant": false,
      "inputs": [
        {
          "name": "newOwner",
          "type": "address"
        }
      ],
      "name": "setOwner",
      "outputs": [
        {
          "name": "",
          "type": "bool"
        }
      ],
      "payable": false,
      "stateMutability": "nonpayable",
      "type": "function"
    },
    {
      "constant": false,
      "inputs": [
        {
          "name": "tollBooth",
          "type": "address"
        }
      ],
      "name": "addTollBooth",
      "outputs": [
        {
          "name": "",
          "type": "bool"
        }
      ],
      "payable": false,
      "stateMutability": "nonpayable",
      "type": "function"
    },
    {
      "constant": true,
      "inputs": [
        {
          "name": "tollBooth",
          "type": "address"
        }
      ],
      "name": "isTollBooth",
      "outputs": [
        {
          "name": "",
          "type": "bool"
        }
      ],
      "payable": false,
      "stateMutability": "view",
      "type": "function"
    },
    {
      "constant": true,
      "inputs": [],
      "name": "getOwner",
      "outputs": [
        {
          "name": "",
          "type": "address"
        }
      ],
      "payable": false,
      "stateMutability": "view",
      "type": "function"
    },
    {
      "inputs": [],
      "payable": false,
      "stateMutability": "nonpayable",
      "type": "constructor"
    },
    {
      "anonymous": false,
      "inputs": [
        {
          "indexed": true,
          "name": "sender",
          "type": "address"
        },
        {
          "indexed": true,
          "name": "entryBooth",
          "type": "address"
        },
        {
          "indexed": true,
          "name": "exitBooth",
          "type": "address"
        },
        {
          "indexed": false,
          "name": "priceWeis",
          "type": "uint256"
        }
      ],
      "name": "LogRoutePriceSet",
      "type": "event"
    },
    {
      "anonymous": false,
      "inputs": [
        {
          "indexed": true,
          "name": "sender",
          "type": "address"
        },
        {
          "indexed": true,
          "name": "tollBooth",
          "type": "address"
        }
      ],
      "name": "LogTollBoothAdded",
      "type": "event"
    },
    {
      "anonymous": false,
      "inputs": [
        {
          "indexed": true,
          "name": "sender",
          "type": "address"
        },
        {
          "indexed": true,
          "name": "tollBooth",
          "type": "address"
        }
      ],
      "name": "LogTollBoothRemoved",
      "type": "event"
    },
    {
      "anonymous": false,
      "inputs": [
        {
          "indexed": true,
          "name": "previousOwner",
          "type": "address"
        },
        {
          "indexed": true,
          "name": "newOwner",
          "type": "address"
        }
      ],
      "name": "LogOwnerSet",
      "type": "event"
    },
    {
      "constant": false,
      "inputs": [
        {
          "name": "entryBooth",
          "type": "address"
        },
        {
          "name": "exitBooth",
          "type": "address"
        },
        {
          "name": "priceWeis",
          "type": "uint256"
        }
      ],
      "name": "setRoutePrice",
      "outputs": [
        {
          "name": "success",
          "type": "bool"
        }
      ],
      "payable": false,
      "stateMutability": "nonpayable",
      "type": "function"
    },
    {
      "constant": true,
      "inputs": [
        {
          "name": "entryBooth",
          "type": "address"
        },
        {
          "name": "exitBooth",
          "type": "address"
        }
      ],
      "name": "getRoutePrice",
      "outputs": [
        {
          "name": "",
          "type": "uint256"
        }
      ],
      "payable": false,
      "stateMutability": "view",
      "type": "function"
    }
  ],
  "bytecode": "0x608060405234801561001057600080fd5b50336000806101000a81548173ffffffffffffffffffffffffffffffffffffffff021916908373ffffffffffffffffffffffffffffffffffffffff160217905550610f59806100606000396000f300608060405260043610610083576000357c0100000000000000000000000000000000000000000000000000000000900463ffffffff1680630bbbcbb21461008857806313af4035146100e35780632c333eab1461013e57806350295c671461019957806350bb553a14610210578063893d20e81461026b578063e23d7c5b146102c2575b600080fd5b34801561009457600080fd5b506100c9600480360381019080803573ffffffffffffffffffffffffffffffffffffffff169060200190929190505050610347565b604051808215151515815260200191505060405180910390f35b3480156100ef57600080fd5b50610124600480360381019080803573ffffffffffffffffffffffffffffffffffffffff1690602001909291905050506104db565b604051808215151515815260200191505060405180910390f35b34801561014a57600080fd5b5061017f600480360381019080803573ffffffffffffffffffffffffffffffffffffffff16906020019092919050505061067e565b604051808215151515815260200191505060405180910390f35b3480156101a557600080fd5b506101fa600480360381019080803573ffffffffffffffffffffffffffffffffffffffff169060200190929190803573ffffffffffffffffffffffffffffffffffffffff1690602001909291905050506108ec565b6040518082815260200191505060405180910390f35b34801561021c57600080fd5b50610251600480360381019080803573ffffffffffffffffffffffffffffffffffffffff169060200190929190505050610973565b604051808215151515815260200191505060405180910390f35b34801561027757600080fd5b506102806109c9565b604051808273ffffffffffffffffffffffffffffffffffffffff1673ffffffffffffffffffffffffffffffffffffffff16815260200191505060405180910390f35b3480156102ce57600080fd5b5061032d600480360381019080803573ffffffffffffffffffffffffffffffffffffffff169060200190929190803573ffffffffffffffffffffffffffffffffffffffff169060200190929190803590602001909291905050506109f2565b604051808215151515815260200191505060405180910390f35b60008060009054906101000a900473ffffffffffffffffffffffffffffffffffffffff1673ffffffffffffffffffffffffffffffffffffffff163373ffffffffffffffffffffffffffffffffffffffff161415156103a457600080fd5b60011515600160008473ffffffffffffffffffffffffffffffffffffffff1673ffffffffffffffffffffffffffffffffffffffff16815260200190815260200160002060009054906101000a900460ff16151514151561040357600080fd5b60008273ffffffffffffffffffffffffffffffffffffffff161415151561042957600080fd5b600160008373ffffffffffffffffffffffffffffffffffffffff1673ffffffffffffffffffffffffffffffffffffffff16815260200190815260200160002060006101000a81549060ff02191690558173ffffffffffffffffffffffffffffffffffffffff163373ffffffffffffffffffffffffffffffffffffffff167f5b34220b1e6888774f5c1badf295633d5d8d4ae02d5e3019e422b3debfe8967860405160405180910390a360019050919050565b60008060009054906101000a900473ffffffffffffffffffffffffffffffffffffffff1673ffffffffffffffffffffffffffffffffffffffff163373ffffffffffffffffffffffffffffffffffffffff1614151561053857600080fd5b6000809054906101000a900473ffffffffffffffffffffffffffffffffffffffff1673ffffffffffffffffffffffffffffffffffffffff168273ffffffffffffffffffffffffffffffffffffffff161415151561059457600080fd5b60008273ffffffffffffffffffffffffffffffffffffffff16141515156105ba57600080fd5b8173ffffffffffffffffffffffffffffffffffffffff166000809054906101000a900473ffffffffffffffffffffffffffffffffffffffff1673ffffffffffffffffffffffffffffffffffffffff167fa1d2149652d81eb35c360c115fc7ac594124cb1ea8a5a33e9a7f5768c62869fb60405160405180910390a3816000806101000a81548173ffffffffffffffffffffffffffffffffffffffff021916908373ffffffffffffffffffffffffffffffffffffffff16021790555060019050919050565b60008060009054906101000a900473ffffffffffffffffffffffffffffffffffffffff1673ffffffffffffffffffffffffffffffffffffffff163373ffffffffffffffffffffffffffffffffffffffff161415156106db57600080fd5b60001515600160008473ffffffffffffffffffffffffffffffffffffffff1673ffffffffffffffffffffffffffffffffffffffff16815260200190815260200160002060009054906101000a900460ff1615151415156107a3576040517f08c379a00000000000000000000000000000000000000000000000000000000081526004018080602001828103825260208152602001807f546f6c6c20626f6f746820697320616c7265616479207265676973746572656481525060200191505060405180910390fd5b60008273ffffffffffffffffffffffffffffffffffffffff1614151515610832576040517f08c379a000000000000000000000000000000000000000000000000000000000815260040180806020018281038252601c8152602001807f546f6c6c20626f6f7468206d757374206265207370656369666965640000000081525060200191505060405180910390fd5b60018060008473ffffffffffffffffffffffffffffffffffffffff1673ffffffffffffffffffffffffffffffffffffffff16815260200190815260200160002060006101000a81548160ff0219169083151502179055508173ffffffffffffffffffffffffffffffffffffffff163373ffffffffffffffffffffffffffffffffffffffff167fe8f587f6ae5ef5f7560b94b9369dd242c9de0588c328add1a785044abf837c6d60405160405180910390a360019050919050565b6000600260008473ffffffffffffffffffffffffffffffffffffffff1673ffffffffffffffffffffffffffffffffffffffff16815260200190815260200160002060008373ffffffffffffffffffffffffffffffffffffffff1673ffffffffffffffffffffffffffffffffffffffff16815260200190815260200160002054905092915050565b6000600160008373ffffffffffffffffffffffffffffffffffffffff1673ffffffffffffffffffffffffffffffffffffffff16815260200190815260200160002060009054906101000a900460ff169050919050565b60008060009054906101000a900473ffffffffffffffffffffffffffffffffffffffff16905090565b60008060009054906101000a900473ffffffffffffffffffffffffffffffffffffffff1673ffffffffffffffffffffffffffffffffffffffff163373ffffffffffffffffffffffffffffffffffffffff16141515610a4f57600080fd5b610a5884610973565b1515610acc576040517f08c379a000000000000000000000000000000000000000000000000000000000815260040180806020018281038252601d8152602001807f456e74727920626f6f7468206973206e6f74207265676973746572656400000081525060200191505060405180910390fd5b610ad583610973565b1515610b49576040517f08c379a000000000000000000000000000000000000000000000000000000000815260040180806020018281038252601c8152602001807f4578697420626f6f7468206973206e6f7420726567697374657265640000000081525060200191505060405180910390fd5b8273ffffffffffffffffffffffffffffffffffffffff168473ffffffffffffffffffffffffffffffffffffffff1614151515610c13576040517f08c379a00000000000000000000000000000000000000000000000000000000081526004018080602001828103825260278152602001807f456e74727920616e64206578697420626f6f74682063616e6e6f74206265207481526020017f68652073616d650000000000000000000000000000000000000000000000000081525060400191505060405180910390fd5b60008473ffffffffffffffffffffffffffffffffffffffff1614151515610ca2576040517f08c379a00000000000000000000000000000000000000000000000000000000081526004018080602001828103825260208152602001807f456e74727920626f6f74682063616e6e6f74206265203078206164647265737381525060200191505060405180910390fd5b60008373ffffffffffffffffffffffffffffffffffffffff1614151515610d31576040517f08c379a00000000000000000000000000000000000000000000000000000000081526004018080602001828103825260208152602001807f456e74727920626f6f74682063616e6e6f74206265203078206164647265737381525060200191505060405180910390fd5b81600260008673ffffffffffffffffffffffffffffffffffffffff1673ffffffffffffffffffffffffffffffffffffffff16815260200190815260200160002060008573ffffffffffffffffffffffffffffffffffffffff1673ffffffffffffffffffffffffffffffffffffffff1681526020019081526020016000205414151515610e25576040517f08c379a00000000000000000000000000000000000000000000000000000000081526004018080602001828103825260128152602001807f4e6f206368616e676520696e207072696365000000000000000000000000000081525060200191505060405180910390fd5b81600260008673ffffffffffffffffffffffffffffffffffffffff1673ffffffffffffffffffffffffffffffffffffffff16815260200190815260200160002060008573ffffffffffffffffffffffffffffffffffffffff1673ffffffffffffffffffffffffffffffffffffffff168152602001908152602001600020819055508273ffffffffffffffffffffffffffffffffffffffff168473ffffffffffffffffffffffffffffffffffffffff163373ffffffffffffffffffffffffffffffffffffffff167f5b631b37e5dfb698eace7497bcae58e93fac69e007127739fc79109d99c58332856040518082815260200191505060405180910390a46001905093925050505600a165627a7a723058206cb8494069f466cc7d847b3d0078550360dbb80bab256128fd22612f35894ce00029",
  "source": "pragma solidity ^0.4.24;\n\nimport \"./interfaces/RoutePriceHolderI.sol\";\nimport \"./TollBoothHolder.sol\";\n\ncontract RoutePriceHolder is RoutePriceHolderI, TollBoothHolder {\n\n    /**\n\t * This could also have been done by hashing both toll booths and use the hash\n\t * as a key to the route price. But that is less gas optimized. According to the yellow paper,\n\t * appendix H:  Gsha3 30 Paid for each SHA3 operation.\n     *              Gsha3word 6 Paid for each word (rounded up) for input data to a SHA3 operation\n     * After testing it seems a lot more expensive to use the hashed approach. Check the next gist: \n\t * https://gist.github.com/51dd22941b2ddee2ee068fe217bd6fee, so use a mapping to a mapping to a uint\n\t */\n    mapping(address => mapping(address => uint)) routeToPrices;\n\n    /**\n     * Event emitted when a new price has been set on a route.\n     * @param sender The account that ran the action.\n     * @param entryBooth The address of the entry booth of the route set.\n     * @param exitBooth The address of the exit booth of the route set.\n     * @param priceWeis The price in weis of the new route.\n     */\n    event LogRoutePriceSet(address indexed sender, address indexed entryBooth,\n        address indexed exitBooth, uint priceWeis);\n\n    constructor() public {\n    }\n\n    /**\n     * Called by the owner of the RoutePriceHolder.\n     *     It can be used to update the price of a route, including to zero.\n     *     It should roll back if the caller is not the owner of the contract.\n     *     It should roll back if one of the booths is not a registered booth.\n     *     It should roll back if entry and exit booths are the same.\n     *     It should roll back if either booth is a 0x address.\n     *     It should roll back if there is no change in price.\n     * @param entryBooth The address of the entry booth of the route set.\n     * @param exitBooth The address of the exit booth of the route set.\n     * @param priceWeis The price in weis of the new route.\n     * @return Whether the action was successful.\n     * Emits LogPriceSet with:\n     *     The sender of the action.\n     *     The address of the entry booth.\n     *     The address of the exit booth.\n     *     The new price of the route.\n     */\n    function setRoutePrice(address entryBooth, address exitBooth, uint priceWeis)\n        onlyWhenOwner public returns (bool success) {\n\n        require(isTollBooth(entryBooth), \"Entry booth is not registered\");\n        require(isTollBooth(exitBooth), \"Exit booth is not registered\");\n        require(entryBooth != exitBooth, \"Entry and exit booth cannot be the same\");\n        require(entryBooth != 0x0, \"Entry booth cannot be 0x address\");\n        require(exitBooth != 0x0,  \"Entry booth cannot be 0x address\");\n        require(routeToPrices[entryBooth][exitBooth] != priceWeis, \"No change in price\");\n\n        routeToPrices[entryBooth][exitBooth] = priceWeis;\n\n        emit LogRoutePriceSet(msg.sender, entryBooth, exitBooth, priceWeis);\n\n        return true;\n\n    }\n\n    /**\n     * @param entryBooth The address of the entry booth of the route. It should accept a 0 address.\n     * @param exitBooth The address of the exit booth of the route. It should accept a 0 address.\n     * @return priceWeis The price in weis of the route.\n     *     If the route is not known or if any address is not a booth it should return 0.\n     *     If the route is invalid, it should return 0.\n     */\n    function getRoutePrice(address entryBooth, address exitBooth)\n        view public returns (uint)\t{\n\n        return routeToPrices[entryBooth][exitBooth];\n\n    }\n\n}\n",
  "sourcePath": "/home/vagrant/DAPPS/ivo_willemsen-code/contracts/RoutePriceHolder.sol",
  "compiler": {
    "name": "solc",
    "version": "0.4.24+commit.e67f0147.Emscripten.clang"
  },
  "schemaVersion": "2.0.1",
  "updatedAt": "2018-10-16T17:02:42.565Z"
}