{
  "contractName": "TollBoothHolder",
  "abi": [
    {
      "constant": false,
      "inputs": [
        {
          "name": "newOwner",
          "type": "address"
        }
      ],
      "name": "setOwner",
      "outputs": [
        {
          "name": "",
          "type": "bool"
        }
      ],
      "payable": false,
      "stateMutability": "nonpayable",
      "type": "function"
    },
    {
      "constant": true,
      "inputs": [],
      "name": "getOwner",
      "outputs": [
        {
          "name": "",
          "type": "address"
        }
      ],
      "payable": false,
      "stateMutability": "view",
      "type": "function"
    },
    {
      "inputs": [],
      "payable": false,
      "stateMutability": "nonpayable",
      "type": "constructor"
    },
    {
      "anonymous": false,
      "inputs": [
        {
          "indexed": true,
          "name": "sender",
          "type": "address"
        },
        {
          "indexed": true,
          "name": "tollBooth",
          "type": "address"
        }
      ],
      "name": "LogTollBoothAdded",
      "type": "event"
    },
    {
      "anonymous": false,
      "inputs": [
        {
          "indexed": true,
          "name": "sender",
          "type": "address"
        },
        {
          "indexed": true,
          "name": "tollBooth",
          "type": "address"
        }
      ],
      "name": "LogTollBoothRemoved",
      "type": "event"
    },
    {
      "anonymous": false,
      "inputs": [
        {
          "indexed": true,
          "name": "previousOwner",
          "type": "address"
        },
        {
          "indexed": true,
          "name": "newOwner",
          "type": "address"
        }
      ],
      "name": "LogOwnerSet",
      "type": "event"
    },
    {
      "constant": false,
      "inputs": [
        {
          "name": "tollBooth",
          "type": "address"
        }
      ],
      "name": "addTollBooth",
      "outputs": [
        {
          "name": "",
          "type": "bool"
        }
      ],
      "payable": false,
      "stateMutability": "nonpayable",
      "type": "function"
    },
    {
      "constant": true,
      "inputs": [
        {
          "name": "tollBooth",
          "type": "address"
        }
      ],
      "name": "isTollBooth",
      "outputs": [
        {
          "name": "",
          "type": "bool"
        }
      ],
      "payable": false,
      "stateMutability": "view",
      "type": "function"
    },
    {
      "constant": false,
      "inputs": [
        {
          "name": "tollBooth",
          "type": "address"
        }
      ],
      "name": "removeTollBooth",
      "outputs": [
        {
          "name": "success",
          "type": "bool"
        }
      ],
      "payable": false,
      "stateMutability": "nonpayable",
      "type": "function"
    }
  ],
  "bytecode": "0x608060405234801561001057600080fd5b50336000806101000a81548173ffffffffffffffffffffffffffffffffffffffff021916908373ffffffffffffffffffffffffffffffffffffffff160217905550610885806100606000396000f30060806040526004361061006d576000357c0100000000000000000000000000000000000000000000000000000000900463ffffffff1680630bbbcbb21461007257806313af4035146100cd5780632c333eab1461012857806350bb553a14610183578063893d20e8146101de575b600080fd5b34801561007e57600080fd5b506100b3600480360381019080803573ffffffffffffffffffffffffffffffffffffffff169060200190929190505050610235565b604051808215151515815260200191505060405180910390f35b3480156100d957600080fd5b5061010e600480360381019080803573ffffffffffffffffffffffffffffffffffffffff1690602001909291905050506103c9565b604051808215151515815260200191505060405180910390f35b34801561013457600080fd5b50610169600480360381019080803573ffffffffffffffffffffffffffffffffffffffff16906020019092919050505061056c565b604051808215151515815260200191505060405180910390f35b34801561018f57600080fd5b506101c4600480360381019080803573ffffffffffffffffffffffffffffffffffffffff1690602001909291905050506107da565b604051808215151515815260200191505060405180910390f35b3480156101ea57600080fd5b506101f3610830565b604051808273ffffffffffffffffffffffffffffffffffffffff1673ffffffffffffffffffffffffffffffffffffffff16815260200191505060405180910390f35b60008060009054906101000a900473ffffffffffffffffffffffffffffffffffffffff1673ffffffffffffffffffffffffffffffffffffffff163373ffffffffffffffffffffffffffffffffffffffff1614151561029257600080fd5b60011515600160008473ffffffffffffffffffffffffffffffffffffffff1673ffffffffffffffffffffffffffffffffffffffff16815260200190815260200160002060009054906101000a900460ff1615151415156102f157600080fd5b60008273ffffffffffffffffffffffffffffffffffffffff161415151561031757600080fd5b600160008373ffffffffffffffffffffffffffffffffffffffff1673ffffffffffffffffffffffffffffffffffffffff16815260200190815260200160002060006101000a81549060ff02191690558173ffffffffffffffffffffffffffffffffffffffff163373ffffffffffffffffffffffffffffffffffffffff167f5b34220b1e6888774f5c1badf295633d5d8d4ae02d5e3019e422b3debfe8967860405160405180910390a360019050919050565b60008060009054906101000a900473ffffffffffffffffffffffffffffffffffffffff1673ffffffffffffffffffffffffffffffffffffffff163373ffffffffffffffffffffffffffffffffffffffff1614151561042657600080fd5b6000809054906101000a900473ffffffffffffffffffffffffffffffffffffffff1673ffffffffffffffffffffffffffffffffffffffff168273ffffffffffffffffffffffffffffffffffffffff161415151561048257600080fd5b60008273ffffffffffffffffffffffffffffffffffffffff16141515156104a857600080fd5b8173ffffffffffffffffffffffffffffffffffffffff166000809054906101000a900473ffffffffffffffffffffffffffffffffffffffff1673ffffffffffffffffffffffffffffffffffffffff167fa1d2149652d81eb35c360c115fc7ac594124cb1ea8a5a33e9a7f5768c62869fb60405160405180910390a3816000806101000a81548173ffffffffffffffffffffffffffffffffffffffff021916908373ffffffffffffffffffffffffffffffffffffffff16021790555060019050919050565b60008060009054906101000a900473ffffffffffffffffffffffffffffffffffffffff1673ffffffffffffffffffffffffffffffffffffffff163373ffffffffffffffffffffffffffffffffffffffff161415156105c957600080fd5b60001515600160008473ffffffffffffffffffffffffffffffffffffffff1673ffffffffffffffffffffffffffffffffffffffff16815260200190815260200160002060009054906101000a900460ff161515141515610691576040517f08c379a00000000000000000000000000000000000000000000000000000000081526004018080602001828103825260208152602001807f546f6c6c20626f6f746820697320616c7265616479207265676973746572656481525060200191505060405180910390fd5b60008273ffffffffffffffffffffffffffffffffffffffff1614151515610720576040517f08c379a000000000000000000000000000000000000000000000000000000000815260040180806020018281038252601c8152602001807f546f6c6c20626f6f7468206d757374206265207370656369666965640000000081525060200191505060405180910390fd5b60018060008473ffffffffffffffffffffffffffffffffffffffff1673ffffffffffffffffffffffffffffffffffffffff16815260200190815260200160002060006101000a81548160ff0219169083151502179055508173ffffffffffffffffffffffffffffffffffffffff163373ffffffffffffffffffffffffffffffffffffffff167fe8f587f6ae5ef5f7560b94b9369dd242c9de0588c328add1a785044abf837c6d60405160405180910390a360019050919050565b6000600160008373ffffffffffffffffffffffffffffffffffffffff1673ffffffffffffffffffffffffffffffffffffffff16815260200190815260200160002060009054906101000a900460ff169050919050565b60008060009054906101000a900473ffffffffffffffffffffffffffffffffffffffff169050905600a165627a7a7230582033e2d41b48d9158ec1fd21f7918a1562791c55b63e9848eda403a7bbf92a65180029",
  "source": "pragma solidity ^0.4.24;\n\nimport \"./Owned.sol\";\nimport \"./interfaces/TollBoothHolderI.sol\";\n\ncontract TollBoothHolder is Owned, TollBoothHolderI {\n\n    mapping(address => bool) tollBooths;\n\n    constructor() public {\n    }\n\n    /**\n     * Event emitted when a toll booth has been added to the TollBoothHolder.\n     * @param sender The account that ran the action.\n     * @param tollBooth The toll booth just added.\n     */\n    event LogTollBoothAdded(address indexed sender, address indexed tollBooth);\n\n    /**\n     * Called by the owner of the TollBoothHolder.\n     *     It should roll back if the caller is not the owner of the contract.\n     *     It should roll back if the argument is already a toll booth.\n     *     It should roll back if the argument is a 0x address.\n     *     When part of TollBoothOperatorI, it should be possible to add toll booths even when\n     *       the contract is paused.\n     * @param tollBooth The address of the toll booth being added.\n     * @return Whether the action was successful.\n     * Emits LogTollBoothAdded with:\n     *     The sender of the action.\n     *     The address of the toll booth just added.\n     */\n    function addTollBooth(address tollBooth) onlyWhenOwner public returns (bool) {\n\n        require(tollBooths[tollBooth] == false, \"Toll booth is already registered\");\n        require(tollBooth != 0x0, \"Toll booth must be specified\");\n\n        tollBooths[tollBooth] = true;\n\n        emit LogTollBoothAdded(msg.sender, tollBooth);\n\n        return true;\n\n    }\n\n    /**\n     * @param tollBooth The address of the toll booth we enquire about. It should accept a 0 address.\n     * @return Whether the toll booth is indeed known to the holder.\n     */\n    function isTollBooth(address tollBooth) view public returns (bool) {\n\n        return tollBooths[tollBooth];\n\n    }\n\n    /**\n     * Event emitted when a toll booth has been removed from the TollBoothOperator.\n     * @param sender The account that ran the action.\n     * @param tollBooth The toll booth just removed.\n     */\n    event LogTollBoothRemoved(address indexed sender, address indexed tollBooth);\n\n    /**\n     * Called by the owner of the TollBoothHolder.\n     *     It should roll back if the caller is not the owner of the contract.\n     *     It should roll back if the argument has already been removed.\n     *     It should roll back if the argument is a 0x address.\n     *     When part of TollBoothOperatorI, it should be possible to remove toll booth even when\n     *       the contract is paused.\n     * @param tollBooth The toll booth to remove.\n     * @return Whether the action was successful.\n     * Emits LogTollBoothRemoved with:\n     *     The sender of the action.\n     *     The address of the toll booth just removed.\n     */\n    function removeTollBooth(address tollBooth) onlyWhenOwner public returns(bool success) {\n\n        require(tollBooths[tollBooth] == true);\n        require(tollBooth != 0x0);\n\n        delete tollBooths[tollBooth];\n\n        emit LogTollBoothRemoved(msg.sender, tollBooth);\n\n        return true;\n\n    }\n\n\t/**\n\"If an instance is a `TollBoothHolderI` and also is a `TollBoothOperatorI`, regardless of the Pausible state, allow additions and removals of toll booths. In all other cases, all instance that are `TollBoothHolderI`, are only allowed to add and remove toll booths when the contract is paused\"\t\n\t */\n\n}\n",
  "sourcePath": "/home/vagrant/DAPPS/ivo_willemsen-code/contracts/TollBoothHolder.sol",
  "compiler": {
    "name": "solc",
    "version": "0.4.24+commit.e67f0147.Emscripten.clang"
  },
  "schemaVersion": "2.0.1",
  "updatedAt": "2018-10-16T17:02:42.554Z"
}